:100000000C9486000C9449060C9476060C94AE0071
:100010000C94AE000C94AE000C94AE000C94AE00A8
:100020000C94AE000C94AE000C94AE000C94AE0098
:100030000C94AE000C94AE000C94AE000C94AE0088
:100040000C94A3060C94AE000C948C090C94C80973
:100050000C94AE000C94AE000C94AE000C94AE0068
:100060000C94AE000C94AE003F20557365206F6E6B
:1000700065206F662056206973205220710052005F
:100080005620312E306231204648454D6475696EE8
:100090006F202D20636F6D70696C65642061742022
:1000A00044656320313820323031332031303A33E7
:1000B000343A303000000000070002010000030461
:1000C00006000000000000000001020408102040AB
:1000D0008001020408102001020408102004040416
:1000E00004040404040202020202020303030303E1
:1000F0000300000000250028002B00000000002461
:100100000027002A00008A04DA0A960411241FBE80
:10011000CFEFD8E0DEBFCDBF11E0A0E0B1E0E6E672
:10012000F8E202C005900D92AE33B107D9F712E0A4
:10013000AEE3B1E001C01D92A53AB107E1F711E0CD
:10014000CAE0D1E004C02297FE010E94E610C6304A
:10015000D107C9F70E94570D0C9426140C94000087
:1001600041E050E068E873E080E00C94190640E854
:1001700055E260E070E08AEF91E00E94030A0E947D
:10018000B00060E082E00E94AA0561E08BE00C9480
:10019000AA0580E00C943906CF93DF9300D0CDB749
:1001A000DEB72091A1023091A2022115310511F490
:1001B00025EA32E0CE010196821B930B0F900F903F
:1001C000DF91CF91089580914F01882339F081E02C
:1001D00020914C0130914D01232B09F480E00895CA
:1001E00010924F016DE271E088E491E00C94D90B1C
:1001F0000E94E300882341F068E471E08AEF91E017
:100200000E941C080C94F00008952F923F924F9288
:100210005F926F927F928F929F92AF92BF92CF9296
:10022000DF92EF92FF920F931F93CF93DF93CDB79F
:10023000DEB7EF970FB6F894DEBF0FBECDBF8834A0
:10024000910510F480E05DC1209157013091580173
:100250002056324221393140A8F7FE013196ABE5F4
:10026000B1E021E030E011E0A901440F551F48172B
:100270005907B0F44D915C911197BA0169507740DC
:100280006F38714010F4108206C0495D5E404F38EF
:100290005140C0F610832F5F3F4F31961496E4CF44
:1002A000888589AB9F819AABAE81ABABED81ECAB1E
:1002B0000C810DAB2B812EAB3A813FAB498148AF0E
:1002C000598559AF6A856AAF8B858BAF9C859CAF8A
:1002D000A88CBF88DE88ED88FC880B891A8979890B
:1002E00068895F857E84CD8468A04F8C3E8C2D8C80
:1002F000AC8DADAFEB8DEEAF2A8D2FAF498D2CA11C
:1003000088E0289F900111248BA1A4E08A9FC0015E
:100310001124822B99A1892B9AA0990C982AFE016D
:100320003496CE018496812C2081A8E02A9F9001EA
:100330001124DF0113975C90522ADF0111972C9151
:10034000A4E02A9F90011124522ADF0112972C91D8
:10035000220F2529820E3496E817F90729F7882DF0
:100360008F7089116FCF8A2D90E0982F8827990F71
:10037000990F990F2B2D30E0322F2227330F330F97
:10038000822B932B8C292D2D30E0322F2227330FF7
:10039000822B932B9E29E0E8FE9E90011124822B54
:1003A000932BA0E40A9F90011124822B932BE0E26F
:1003B0001E9F90011124822B932B00E1709F9001CE
:1003C0001124822B932B28E0629FB0011124862BED
:1003D000972B64E0569F90011124822B932B272D9D
:1003E00030E0220F331F822B932BB4E0880F991F2C
:1003F000BA95E1F714E0959587951A95E1F79C0178
:100400002D503E4F2F3A344008F01CCFE0E86E9E4E
:100410003001112400E4409E200111246428642A44
:1004200040E2349E90011124622A50E1259E100181
:1004300011246228ADAD68E0A69F90011124622AC4
:100440000EADE4E00E9F90011124622A2FAD220F21
:10045000262933E6320F333608F0F4CE2C591F929A
:100460002F939F938F931F922CAD2F938AAD880F5C
:100470003BAD832B1F928F931F9249AD4F932AA9B7
:10048000220F6BA954E0659FC0011124282B89A974
:10049000282BECA9A8E0EA9FC0011124282B3DA934
:1004A00000E1309FC0011124282B5EA940E2549F37
:1004B000C0011124282BAFA960E4A69FC00111241C
:1004C000282B08ADE0E80E9FC0011124282B1F92B5
:1004D0002F9386E091E09F938F938E010A5D1F4FCB
:1004E0001F930F930E944511B80188E491E00E9488
:1004F000D90B81E080934F010FB6F894DEBF0FBE99
:10050000CDBFEF960FB6F894DEBF0FBECDBFDF9123
:10051000CF911F910F91FF90EF90DF90CF90BF9000
:10052000AF909F908F907F906F905F904F903F9093
:100530002F9008952F923F924F925F926F927F92E9
:100540008F929F92AF92BF92CF92DF92EF92FF92E3
:100550000F931F93CF93DF93CDB7DEB728970FB6D6
:10056000F894DEBF0FBECDBF8C0161E271E088E47C
:1005700091E00E94D90B0133110509F0AFC08091C1
:100580005701909158016FE170E00E94AE108B010D
:100590004B01A12CB12C9B01ACE3B0E00E949F1059
:1005A0000E94AE0F2AE037ED43E25CE30E943C106C
:1005B0000E94820F6B017C019801A3E0B0E00E94D1
:1005C0009F109B01AC012C193D094E095F0929833D
:1005D0003A834B835C839B01AC012C0D3D1D4E1D6A
:1005E0005F1D2D833E834F83588759E5252E51E0AB
:1005F000352E80E090E0DC01950184010C191D0985
:100600002E093F098C0C9D1CAE1CBF1C49EB241607
:1006100041E0340609F454C0F101E080F180270183
:10062000612C712C0415150526053705E0F44814D6
:1006300059046A047B04B8F4E280F3806701E12C7A
:10064000F12C49815A816B817C814C155D056E05C9
:100650007F0548F44D815E816F817885C416D5068B
:10066000E606F70628F149815A816B817C814415A1
:1006700055056605770590F54D815E816F8178851A
:10068000441655066606770648F5F101E280F380C8
:100690006701E12CF12C0C151D052E053F05F0F42A
:1006A000C814D904EA04FB04C8F40196A11DB11DC5
:1006B000880F991FAA1FBB1FF4E02F0E311CA6CF75
:1006C000AC01BD01769567955795479588E491E013
:1006D0000E94320C81E080934F0101C080E0289697
:1006E0000FB6F894DEBF0FBECDBFDF91CF911F9143
:1006F0000F91FF90EF90DF90CF90BF90AF909F90C1
:100700008F907F906F905F904F903F902F900895C3
:10071000CF92DF92EF92FF920E94ED066B017C0177
:1007200080914401909145019601281B390BC90124
:100730003093430120934201893833E19307B8F1A4
:100740002091570130915801A901485C510948177F
:10075000590748F528533F4F8217930720F52091FA
:100760004001309141012F5F3F4F30934101209371
:10077000400180913E0190913F01019790933F018C
:1007800080933E012230310571F40E9405018111F0
:1007900006C080913E0190913F010E949A02109202
:1007A00041011092400110923F0110923E01809150
:1007B0003E0190913F018B34910540F010923F0132
:1007C00010923E011092410110924001E0913E01D1
:1007D000F0913F01CF01019690933F0180933E013C
:1007E000EE0FFF1FE95AFE4F8091420190914301A5
:1007F00091838083C0924401D0924501E0924601EA
:10080000F0924701FF90EF90DF90CF900895EF9224
:10081000FF920F931F93CF93DF938C017B010E9474
:10082000C90061E08BE00E94E205CEE5D1E00C9FBB
:10083000C0010D9F900D1C9F900D11240E94170761
:1008400060E08BE00E94E205EC9EC001ED9E900D01
:10085000FC9E900D11240E941707DF91CF911F91EC
:100860000F91FF90EF900C94B00063E070E081E096
:1008700090E00E94070463E070E081E090E00C9457
:10088000070461E070E083E090E00E94070461E00B
:1008900070E083E090E00C94070463E070E081E096
:1008A00090E00E94070461E070E083E090E00C9427
:1008B00007046FE170E081E090E00C940704EF9290
:1008C000FF920F931F93CF93DF937C0103E010E01F
:1008D000CE2DDF2D2991222379F0213351F02634BA
:1008E00029F02033B9F70E943504F4CF0E944D045B
:1008F000F1CF0E944104EECF0E945904015011092A
:100900000115110529F7DF91CF911F910F91FF90EC
:10091000EF9008956DE271E080E591E00E949B0BFD
:100920006DE271E088E491E00C949B0B88E491E027
:100930000E942A0B80E591E00C942A0BFF920F9302
:100940001F93CF93DF93CDB7DEB764970FB6F894BC
:10095000DEBF0FBECDBF8C0164E271E00E94760C59
:10096000882319F060E870E06BC062E271E0C801B2
:100970000E94760C882381F06EE770E08AEF91E0A8
:100980000E9494070E94CC004AE050E0BC018AEF2C
:1009900091E00E94D70858C066E271E0CE0101964E
:1009A0000E949B0BBE016F5F7F4FC8010E94BC0C71
:1009B000F82ECE0101960E942A0BFF2041F161E042
:1009C0008DE00E94E20542E050E0B801CE010E96B3
:1009D0000E944B0D20E030E04DE050E0BE016F5F23
:1009E0007F4FCE010E960E94DC0CCE010E960E9427
:1009F0002A0BCE0101960E945F0460E08DE00E9408
:100A0000E205B8018AEF91E00E941C081DC069E26E
:100A100071E0C8010E94760C882349F08AEF91E0CA
:100A20000E9444098AEF91E00E94830A0DC06CE2A3
:100A300071E0C8010E94760C882331F068E670E00E
:100A40008AEF91E00E9408086DE271E080E591E094
:100A50000E94D90B64960FB6F894DEBF0FBECDBFCF
:100A6000DF91CF911F910F91FF9008951F93CF9326
:100A7000DF93CDB7DEB727970FB6F894DEBF0FBE72
:100A8000CDBF8AEF91E00E94F108892B79F18AEFBE
:100A900091E00E942009182F8A3021F08D3011F04A
:100AA00081110FC060E571E0CE0101960E94CF0B6D
:100AB000CE0101960E949E04CE0101960E942A0B4F
:100AC000E0CF60E571E0CE0101960E94CF0B612F6F
:100AD000CE0101960E94650CBC0180E591E00E9468
:100AE000B80BCE0101960E942A0BCBCF27960FB6EA
:100AF000F894DEBF0FBECDBFDF91CF911F91089557
:100B0000833069F028F48130A1F0823011F514C0EF
:100B10008630B1F08730C1F08430D9F404C08091C0
:100B200080008F7703C0809180008F7D809380004C
:100B3000089584B58F7702C084B58F7D84BD0895F4
:100B40008091B0008F7703C08091B0008F7D80933B
:100B5000B0000895CF93DF9390E0FC01E753FF4F7F
:100B60004491FC01E352FF4F8491882341F190E0CE
:100B7000880F991FFC01E550FF4F25913491D90151
:100B80008F509F4FFC0185919491C82FD92F9FB70B
:100B9000F8948C91611106C0409584238C938881D0
:100BA000842308C0623041F4242F209582238C9343
:100BB0008881842B888302C0842B8C939FBFDF9114
:100BC000CF9108950F931F93CF93DF931F92CDB7CB
:100BD000DEB7282F30E0F901EB54FF4F8491F90183
:100BE000E753FF4F1491F901E352FF4F04910023A3
:100BF000D1F0882321F069830E9480056981E02F6C
:100C0000F0E0EE0FFF1FEF50FF4F85919491DC0154
:100C10009FB7F8948C91611103C01095812301C096
:100C2000812B8C939FBF0F90DF91CF911F910F91DC
:100C300008958230E8F4E82FF0E0EE0FFF1FE35153
:100C4000FE4F71836083813041F0809169008C7F19
:100C5000842B80936900E89A089580916900440F7D
:100C6000551F440F551F837F842B80936900E99A99
:100C70000895823068F4813011F0E89801C0E99855
:100C8000E82FF0E0EE0FFF1FE351FE4F11821082BC
:100C900008951F920F920FB60F9211242F933F9336
:100CA0004F935F936F937F938F939F93AF93BF9374
:100CB000EF93FF938091ED019091EE01892B29F044
:100CC000E091ED01F091EE010995FF91EF91BF9157
:100CD000AF919F918F917F916F915F914F913F91D4
:100CE0002F910F900FBE0F901F9018951F920F928B
:100CF0000FB60F9211242F933F934F935F936F93EF
:100D00007F938F939F93AF93BF93EF93FF938091C4
:100D1000EF019091F001892B29F0E091EF01F09122
:100D2000F0010995FF91EF91BF91AF919F918F9144
:100D30007F916F915F914F913F912F910F900FBED7
:100D40000F901F9018951F920F920FB60F921124BB
:100D50002F933F938F939F93AF93BF938091F10114
:100D60009091F201A091F301B091F4013091F90159
:100D7000232F2D5F2D3720F40196A11DB11D05C035
:100D8000232F2A570296A11DB11D2093F9018093AC
:100D9000F1019093F201A093F301B093F4018091DB
:100DA000F5019091F601A091F701B091F80101963B
:100DB000A11DB11D8093F5019093F601A093F70159
:100DC000B093F801BF91AF919F918F913F912F9177
:100DD0000F900FBE0F901F9018950F931F939FB702
:100DE000F8940091F5011091F6012091F7013091EE
:100DF000F80186B5A89B06C08F3F21F00F5F1F4FFB
:100E00002F4F3F4F9FBF322F212F102F0027080F4A
:100E1000111D211D311D42E0000F111F221F331F24
:100E20004A95D1F7B801C9011F910F910895019713
:100E300039F0880F991F880F991F02970197F1F7D2
:100E40000895789484B5826084BD84B5816084BD42
:100E500085B5826085BD85B5816085BDEEE6F0E033
:100E6000808181608083E1E8F0E01082808182608F
:100E70008083808181608083E0E8F0E08081816010
:100E80008083E1EBF0E0808184608083E0EBF0E040
:100E9000808181608083EAE7F0E0808184608083E4
:100EA000808182608083808181608083808180688E
:100EB00080831092C1000895CF92DF92EF92FF924B
:100EC0000F931F93CF93DF936C01EB017A01E60E32
:100ED000F71E00E010E00BC06991D601ED91FC9186
:100EE0000190F081E02DC6010995080F191FCE155C
:100EF000DF0591F7C801DF91CF911F910F91FF900E
:100F0000EF90DF90CF900895DB010D900020E9F77E
:100F1000AD0141505109461B570BDC01ED91FC918D
:100F20000280F381E02D0994EF92FF920F931F93BB
:100F3000CF93DF937C01EB0100E010E0FE012196EE
:100F40006491662351F0F701A081B181ED91FC918C
:100F5000C7010995080F191FF1CFC801DF91CF9183
:100F60001F910F91FF90EF900895AF92BF92CF9293
:100F7000DF92EF92FF920F931F93CF93DF937C0149
:100F80006B0100E010E0C0E0D0E011C0D701ED91AE
:100F9000FC91A080B180B801C6010E94CB0C682FE3
:100FA000C701F5010995C80FD91F0F5F1F4FD60163
:100FB00014968D919C9115970817190738F3CE0157
:100FC000DF91CF911F910F91FF90EF90DF90CF9025
:100FD000BF90AF900895DC01ED91FC910190F081FC
:100FE000E02D09940F931F93CF93DF93EC016DE0F5
:100FF0000E94EB078C016AE0CE010E94EB079C0186
:10100000200F311FC901DF91CF911F910F910895DA
:101010000F931F93CF93DF93EC010E9494078C01F1
:10102000CE010E94F2079C01200F311FC901DF9100
:10103000CF911F910F9108950F931F93CF93DF933B
:10104000EC010E94B5078C01CE010E94F2079C01C1
:10105000200F311FC901DF91CF911F910F9108958A
:101060004F925F926F927F929F92AF92BF92CF9278
:10107000DF92EF92FF920F931F93CF93DF93CDB741
:10108000DEB7A1970FB6F894DEBF0FBECDBF5C01EF
:101090006A017B01922E19A281E0821710F08AE08A
:1010A000982E8E010F5D1F4F492C512C612C712CF5
:1010B000C701B601A30192010E94C2108C2D929E1D
:1010C00080191124015011098A3014F4805D01C087
:1010D000895CF801808369017A01C114D104E104BB
:1010E000F10431F7B801C5010E948407A1960FB63B
:1010F000F894DEBF0FBECDBFDF91CF911F910F914E
:10110000FF90EF90DF90CF90BF90AF909F907F9037
:101110006F905F904F900895CF92DF92EF92FF9281
:101120000F931F93CF93DF93EC016A017B0121158D
:10113000310579F4E881F9810190F081E02D642F87
:10114000DF91CF911F910F91FF90EF90DF90CF90A3
:1011500009942A30310519F477FD0EC02AE0B70151
:10116000A601CE01DF91CF911F910F91FF90EF90DB
:10117000DF90CF900C9430086DE20E94EB078C0159
:1011800044275527BA014C195D096E097F092AE0E9
:10119000CE010E943008080F191FC801DF91CF91BE
:1011A0001F910F91FF90EF90DF90CF9008950F93D4
:1011B0001F93CF93DF93EC019A01AB01662757FD94
:1011C0006095762F0E948C088C01CE010E94F20758
:1011D0009801280F391FC901DF91CF911F910F91FD
:1011E0000895FC0184859585FC01E05CFF4F20811A
:1011F0003181FC01EE5BFF4F80819181281B390B0F
:101200002F733327C9010895FC0184859585FC015E
:10121000E05CFF4F40815181FC01EE5BFF4F20817C
:1012200031814217530741F00190F081E02DE80F22
:10123000F91F208130E002C02FEF3FEFC901089570
:10124000FC0184859585FC01E05CFF4F4081518164
:10125000FC01EE5BFF4F208131814217530781F083
:10126000A081B181A80FB91F8C91208131812F5F9E
:101270003F4F2F73332731832083282F30E002C064
:101280002FEF3FEFC9010895FC0186859785FC018A
:10129000E05CFF4FDC01AE5BBF4F408151812D917F
:1012A0003C91119742175307C1F70895CF93DF93ED
:1012B000FC0186859785DC01A05CBF4F2D913C9198
:1012C00011972F5F3F4F2F733327EC01CE5BDF4F1A
:1012D0004881598124173507D9F30D90BC91A02D71
:1012E000A80FB91F6C93A685B785A05CBF4F119658
:1012F0003C932E93A689B7892C9181E090E0058CD0
:1013000002C0880F991F0A94E2F7282B2C9381E0E2
:1013100090E0DF91CF9108951F920F920FB60F9238
:1013200011242F933F934F938F939F93EF93FF93AA
:101330004091C60080919D0290919E0201968F730C
:10134000992720919F023091A0028217930759F0AC
:10135000E0919D02F0919E02E35AFD4F40839093ED
:101360009E0280939D02FF91EF919F918F914F91EB
:101370003F912F910F900FBE0F901F9018958AEFFD
:1013800091E00E94F108892B11F00C943605089524
:101390001F920F920FB60F9211242F933F938F93AA
:1013A0009F93EF93FF932091590230915A028091BD
:1013B0005B0290915C022817390731F48091C100DB
:1013C0008F7D8093C10014C0E0915B02F0915C02BC
:1013D000E75EFD4F208180915B0290915C02019657
:1013E0008F73992790935C0280935B022093C600D1
:1013F000FF91EF919F918F913F912F910F900FBE91
:101400000F901F901895CF92DF92EF92FF92CF939B
:10141000DF93EC016A017B01411581EE58076105FC
:101420007105F9F0EC89FD8981E090E00E8C02C035
:10143000880F991F0A94E2F7808360E079E08DE3DA
:1014400090E0A70196010E94C21021503109410984
:1014500051095695479537952795211580E138070D
:1014600098F0EC89FD89108260E874E88EE190E0E4
:10147000A70196010E94C21021503109410951096A
:101480005695479537952795E889F9893083EA89F4
:10149000FB892083EE89FF89408181E090E09C01F7
:1014A0000A8C02C0220F331F0A94E2F7422B4083BA
:1014B000EE89FF8940819C010B8C02C0220F331FF3
:1014C0000A94E2F7422B4083EE89FF8940819C0118
:1014D0000C8C02C0220F331F0A94E2F7422B408388
:1014E000EE89FF8920810D8C02C0880F991F0A9414
:1014F000E2F7809582238083DF91CF91FF90EF9078
:10150000DF90CF900895CF93DF93FC018685978578
:10151000DC01A05CBF4FEC01CE5BDF4F4D915C91D5
:1015200011972881398142175307C1F7A689B789D6
:101530004C9181E090E09C01028C02C0220F331F8D
:101540000A94E2F7209524232C93A689B7894C911D
:101550009C01038C02C0220F331F0A94E2F72095EE
:1015600024232C93A689B7894C919C01048C02C03A
:10157000220F331F0A94E2F7209524232C93A68987
:10158000B7892C91058C02C0880F991F0A94E2F745
:10159000809582238C9384859585FC01EE5BFF4FBB
:1015A00020813181FC01E05CFF4F31832083DF919A
:1015B000CF9108951092FD011092FC0188EE93E006
:1015C000A0E0B0E08093FE019093FF01A0930002A1
:1015D000B093010282E391E09093FB018093FA01C2
:1015E0008DE592E0909307028093060289E192E0F4
:1015F000909309028093080285EC90E090930B028F
:1016000080930A0284EC90E090930D0280930C0288
:1016100080EC90E090930F0280930E0281EC90E0BA
:10162000909311028093100286EC90E09093130245
:101630008093120284E08093140283E08093150269
:1016400087E08093160285E08093170281E0809303
:1016500018020895FC01808191810C94E30ECF93D0
:10166000DF93EC0188819981009711F00E94E30ECD
:10167000198218821D821C821B821A82DF91CF91EF
:1016800008950F931F93CF93DF93EC018B016F5F4E
:101690007F4F888199810E94640D009731F0998372
:1016A00088831B830A8381E001C080E0DF91CF91B2
:1016B0001F910F910895CF93DF93EC018881998159
:1016C000892B31F08A819B818617970708F00CC01F
:1016D000CE010E94410B882349F08C819D81892B8A
:1016E00019F4E881F981108281E001C080E0DF9186
:1016F000CF910895EF92FF920F931F93CF93DF93B3
:10170000EC017B018A01BA010E945B0B811104C0CC
:10171000CE010E942F0B07C01D830C83B701888167
:1017200099810E94FC10CE01DF91CF911F910F9102
:10173000FF90EF900895DC0111961C921E92139673
:101740001C921E92129715961C921E921497169632
:101750001C926115710559F0DB010D900020E9F72D
:10176000AD0141505109461B570B0C947A0B08955B
:10177000CF93DF93EC01FB018617970761F060813F
:1017800071816115710529F0448155810E947A0BA0
:1017900002C00E942F0BCE01DF91CF910895FC0172
:1017A00011821082138212821582148216820C9486
:1017B000B80BCF93DF93D82FC92F6115710561F056
:1017C000DB010D900020E9F7AD0141505109461BA6
:1017D000570B0E947A0B02C00E942F0B8D2F9C2F5B
:1017E000DF91CF910895EF92FF920F931F93CF93C4
:1017F000DF93EC017B010C811D816115710511F4F2
:1018000080E016C04115510591F0040F151FB80175
:101810000E945B0B8823A1F3288139818C819D81F3
:10182000B701820F931F0E94FC101D830C8381E07F
:10183000DF91CF911F910F91FF90EF900895CF937B
:10184000DF9300D0CDB7DEB769831A8241E050E064
:10185000BE016F5F7F4F0E94F30B0F900F90DF91DF
:10186000CF910895EF92FF920F931F93CF93DF9341
:10187000CDB7DEB72B970FB6F894DEBF0FBECDBF46
:101880007C01CB01BA012AE030E08E010F5F1F4FCF
:10189000A8010E942011F80101900020E9F7AF0192
:1018A00041505109401B510BB801C7010E94F30B75
:1018B0002B960FB6F894DEBF0FBECDBFDF91CF9150
:1018C0001F910F91FF90EF900895CF93DF93D82F42
:1018D000C92F0E941F0C811104C08D2F9C2F0E94C4
:1018E0002F0B8D2F9C2FDF91CF910895DC01149643
:1018F0002D913C911597232B39F481E061157105E9
:1019000011F0FB0108C00895DC01ED91FC91611517
:10191000710529F481E09081992349F007C0CF0136
:101920000E94F3109C0181E0232B09F080E00895D0
:10193000FA01DB0114964D915C911597DC01149628
:101940002D913C911597241B350B2E173F0790F0D6
:101950008D919C91009771F0DB016D917C916115E7
:10196000710541F08E0F9F1F0E9403119C0181E0C1
:10197000232B09F080E00895FC0144815581FB018F
:10198000248135814217530720F040E050E00C9449
:10199000980C80E00895FC0124813581621773075B
:1019A00048F480819181009729F0FC01E60FF71F30
:1019B0008081089580E008950F931F93CF93DF9364
:1019C000EB0141155105E9F02097D9F0FC010481A4
:1019D00015812017310708F013C041505109021B2F
:1019E000130B4017510708F48A01FC0160817181D3
:1019F000620F731FA801CE010E941111C00FD11FE9
:101A00001882DF91CF911F910F910895BF92CF92CD
:101A1000DF92EF92FF920F931F93CF93DF936C01AE
:101A20007B01EA0189012417350720F48D2FE90194
:101A3000042F182F6DE271E0C6010E949B0BD701A5
:101A400014968D919C9115978C179D07C8F080175F
:101A5000910708F48C01D701ED91FC911197E00FEB
:101A6000F11FB08010826D917C916C0F7D1FC601BB
:101A70000E94D90BD701ED91FC91E00FF11FB082CC
:101A8000C601DF91CF911F910F91FF90EF90DF90F2
:101A9000CF90BF900895CF93DF93EC01FB01248199
:101AA00035810E94060DCE01DF91CF9108950E94ED
:101AB00021070E94B700CFEBD9E00E94F8002097E1
:101AC000E1F30E94BF09F9CF8F929F92AF92BF922C
:101AD000CF92DF92EF92FF920F931F93CF93DF93FA
:101AE000EC01009779F4CB01DF91CF911F910F9119
:101AF000FF90EF90DF90CF90BF90AF909F908F902E
:101B00000C94480EDC01A60FB71FFC013297AE17EC
:101B1000BF0718F4C0E0D0E0ADC000811181061706
:101B20001707B0F00530110508F4A4C0C8010497E8
:101B30008617970708F49EC002501109061B170B61
:101B40000D931D9371836083CD010E94E30E92C0BB
:101B50007B01E01AF10A5C01A00EB11EE091A30224
:101B6000F091A402812C912C80E090E04CC0EA1509
:101B7000FB05F1F5408151816A0122E0C20ED11CC2
:101B8000CE14DF04A8F19A012E193F0979016901E9
:101B900032E0C30ED11C2EEFA22EBB24BA94AC0EA1
:101BA000BD1E25E0C216D10478F042815381139600
:101BB0005C934E9312971196FC92EE92F50171830D
:101BC00060833A2F2B2F09C00E5F1F4F040F151F84
:101BD000D5010D931C9332812381009721F0FC01E4
:101BE0003283238347C03093A3022093A40242C0D0
:101BF000808191818816990608F44C0152814381B5
:101C0000CF01E52FF42F309709F0B1CF8091A102D9
:101C10009091A2028A159B05F1F486169706D8F4D6
:101C20008091000190910101009741F48DB79EB71A
:101C30002091040130910501821B930BA817B9076D
:101C400008F068CFB093A202A093A102FE013297E0
:101C5000718360830FC0CB010E94480E7C01009706
:101C600009F458CFA801BE010E94EA10CE010E94DB
:101C7000E30EE701CE01DF91CF911F910F91FF900D
:101C8000EF90DF90CF90BF90AF909F908F9008958E
:101C90000F931F93CF93DF938230910510F482E06E
:101CA00090E0E091A302F091A40220E030E0C0E0D7
:101CB000D0E023C04081518148175907A8F0481748
:101CC000590761F482819381209719F09B838A835D
:101CD0002EC09093A4028093A30229C02115310540
:101CE00029F04217530710F0A90102C0BE01DF011D
:101CF00002811381EF019A01F8013097D9F621157D
:101D0000310509F1281B390B2430310590F4129666
:101D10008D919C9113976115710521F0FB019383BF
:101D2000828304C09093A4028093A302FD013296A3
:101D300044C0FD01E20FF31F8193919322503109BA
:101D40002D933C933AC02091A1023091A202232B03
:101D500041F420910201309103013093A2022093BB
:101D6000A10220910001309101012115310541F4BA
:101D70002DB73EB74091040150910501241B350B4E
:101D8000E091A102F091A202E217F307A0F42E1B4A
:101D90003F0B2817390778F0AC014E5F5F4F2417CF
:101DA000350748F04E0F5F1F5093A2024093A102E7
:101DB0008193919302C0E0E0F0E0CF01DF91CF91F9
:101DC0001F910F910895EF92FF920F931F93CF935E
:101DD000DF93009709F48FC0DC01129713961C92D1
:101DE0001E921297E090A302F090A402E114F10475
:101DF00089F42D913C911197280F391F8091A102F0
:101E00009091A2028217930789F5B093A202A09342
:101E1000A10271C0E70120E030E001C0EA01CA1769
:101E2000DB0738F44A815B819E0141155105B1F70A
:101E300022C0BC0162507109FB01D383C2830081BF
:101E40001181AC01400F511F4C175D0761F44881AF
:101E50005981400F511F4E5F5F4F518340834A812C
:101E60005B81538342832115310529F4B093A40289
:101E7000A093A30240C0F901B383A283E901699151
:101E80007991C60FD71FAC17BD0779F4DC015E91BD
:101E90004E91460F571F4E5F5F4F518340831296FE
:101EA0008D919C91139793838283A0E0B0E002C050
:101EB000D7017C01F701828193810097C9F7C7019F
:101EC000029620813181820F931F2091A1023091CF
:101ED000A2022817390779F4109729F41092A40266
:101EE0001092A30204C013961C921E921297F092B5
:101EF000A202E092A102DF91CF911F910F91FF907A
:101F0000EF90089598D088F09F5790F0B92F9927B7
:101F1000B751A0F0D1F0660F771F881F991F1AF0F4
:101F2000BA95C9F712C0B13081F09FD0B1E00895E1
:101F30009CC0672F782F8827B85F39F0B93FCCF362
:101F4000869577956795B395D9F73EF490958095EA
:101F5000709561957F4F8F4F9F4F0895E89409C00A
:101F600097FB3EF490958095709561957F4F8F4FCC
:101F70009F4F9923A9F0F92F96E9BB279395F695E2
:101F8000879577956795B795F111F8CFFAF4BB0F60
:101F900011F460FF1BC06F5F7F4F8F4F9F4F16C0C4
:101FA000882311F096E911C0772321F09EE8872F4E
:101FB000762F05C0662371F096E8862F70E060E00A
:101FC0002AF09A95660F771F881FDAF7880F969583
:101FD000879597F9089597F99F6780E870E060E02A
:101FE00008959FEF80EC089500240A9416161706B2
:101FF00018060906089500240A94121613061406FA
:1020000005060895092E0394000C11F4882352F05C
:10201000BB0F40F4BF2B11F460FF04C06F5F7F4F14
:102020008F4F9F4F089557FD9058440F551F59F0FB
:102030005F3F71F04795880F97FB991F61F09F3FB5
:1020400079F087950895121613061406551FF2CFDE
:102050004695F1DF08C0161617061806991FF1CF2E
:1020600086957105610508940895E894BB27662755
:102070007727CB0197F908950BD0C4CFB5DF28F0AF
:10208000BADF18F0952309F0A6CFABCF1124EECF1D
:10209000CADFA0F3959FD1F3950F50E0551F629FC3
:1020A000F001729FBB27F00DB11D639FAA27F00DB1
:1020B000B11DAA1F649F6627B00DA11D661F829FD8
:1020C0002227B00DA11D621F739FB00DA11D621FBD
:1020D000839FA00D611D221F749F3327A00D611DDA
:1020E000231F849F600D211D822F762F6A2F1124BC
:1020F0009F5750408AF0E1F088234AF0EE0FFF1F0F
:10210000BB1F661F771F881F91505040A9F79E3F45
:10211000510570F060CFAACF5F3FECF3983EDCF33F
:10212000869577956795B795F795E7959F5FC1F782
:10213000FE2B880F911D9695879597F90895A29F7C
:10214000B001B39FC001A39F700D811D1124911D8B
:10215000B29F700D811D1124911D0895AA1BBB1BF8
:1021600051E107C0AA1FBB1FA617B70710F0A61B97
:10217000B70B881F991F5A95A9F780959095BC01B8
:10218000CD010895A1E21A2EAA1BBB1BFD010DC0B3
:10219000AA1FBB1FEE1FFF1FA217B307E407F50717
:1021A00020F0A21BB30BE40BF50B661F771F881FF3
:1021B000991F1A9469F760957095809590959B0189
:1021C000AC01BD01CF010895EE0FFF1F0590F49102
:1021D000E02D0994FB01DC0102C001900D924150F9
:1021E0005040D8F70895FB01DC018D9101908019D2
:1021F0000110D9F3990B0895FB01DC0101900D92B8
:102200000020E1F70895FB01DC014150504030F01F
:102210008D910190801919F40020B9F7881B990B52
:102220000895FB01DC014150504048F001900D92AF
:102230000020C9F701C01D9241505040E0F70895B9
:10224000FA01CF93FF93EF932230CCF02532BCF408
:10225000C22F2C2F332744275527FF93EF930E943B
:10226000C210EF91FF91605D6A330CF0695D61937C
:10227000B901CA01605070408040904051F710820F
:102280008F919F91CF910C944F13AEE0B0E0EBE4AF
:10229000F1E10C94FD130D891E8986E08C831A836D
:1022A00009838FEF9FE79E838D83AE01475E5F4F6B
:1022B0006F89788DCE0101960E946711EF81F885B4
:1022C000E00FF11F10822E96E4E00C941914ACE09C
:1022D000B0E0EDE6F1E10C94EF137C016B018A01B3
:1022E000FC0117821682838181FFBDC1CE01019658
:1022F0004C01F7019381F60193FD859193FF819144
:102300006F01882309F4ABC1853239F493FD8591BF
:1023100093FF81916F01853229F4B70190E00E940B
:102320005F13E7CF512C312C20E02032A0F48B3208
:1023300069F030F4803259F0833269F420612CC0A6
:102340008D3239F0803339F4216026C02260246058
:1023500023C0286021C027FD27C030ED380F3A3058
:1023600078F426FF06C0FAE05F9E300D1124532E4C
:1023700013C08AE0389E300D1124332E20620CC029
:102380008E3221F426FD6BC1206406C08C3611F418
:10239000206802C0883641F4F60193FD859193FFD1
:1023A00081916F018111C1CF982F9F7D95549330FA
:1023B00028F40C5F1F4FFFE3F9830DC0833631F023
:1023C000833771F0833509F05BC022C0F80180814A
:1023D00089830E5F1F4F44244394512C540115C030
:1023E0003801F2E06F0E711CF801A080B18026FF69
:1023F00003C0652D70E002C06FEF7FEFC5012C8731
:102400000E9444132C0183012C852F77222E17C0A4
:102410003801F2E06F0E711CF801A080B18026FF38
:1024200003C0652D70E002C06FEF7FEFC5012C8700
:102430000E9439132C012C852068222E830123FC55
:102440001BC0832D90E048165906B0F4B70180E216
:1024500090E00E945F133A94F4CFF50127FC859138
:1024600027FE81915F01B70190E00E945F13311058
:102470003A94F1E04F1A51084114510471F7E5C044
:10248000843611F0893639F5F80127FF07C06081DD
:102490007181828193810C5F1F4F08C060817181BF
:1024A000882777FD8095982F0E5F1F4F2F76B22ECD
:1024B00097FF09C090958095709561957F4F8F4FDC
:1024C0009F4F2068B22E2AE030E0A4010E949113B1
:1024D000A82EA81844C0853729F42F7EB22E2AE0F2
:1024E00030E025C0F22FF97FBF2E8F36C1F018F4EF
:1024F000883579F0B4C0803719F0883721F0AFC043
:102500002F2F2061B22EB4FE0DC08B2D8460B82E0B
:1025100009C024FF0AC09F2F9660B92E06C028E08C
:1025200030E005C020E130E002C020E132E0F801F7
:10253000B7FE07C060817181828193810C5F1F4F5C
:1025400006C06081718180E090E00E5F1F4FA401A2
:102550000E949113A82EA818FB2DFF77BF2EB6FE60
:102560000BC02B2D2E7FA51450F4B4FE0AC0B2FC74
:1025700008C02B2D2E7E05C07A2C2B2D03C07A2C63
:1025800001C0752C24FF0DC0FE01EA0DF11D8081F4
:10259000803311F4297E09C022FF06C0739473941E
:1025A00004C0822F867809F0739423FD13C020FFA6
:1025B00006C05A2C731418F4530C5718732C731448
:1025C00068F4B70180E290E02C870E945F13739457
:1025D0002C85F5CF731410F4371801C0312C24FF6B
:1025E00012C0B70180E390E02C870E945F132C8516
:1025F00022FF17C021FF03C088E590E002C088E7F2
:1026000090E0B7010CC0822F867859F021FD02C0FE
:1026100080E201C08BE227FD8DE2B70190E00E94CD
:102620005F13A51438F4B70180E390E00E945F13B4
:102630005A94F7CFAA94F401EA0DF11D8081B701F5
:1026400090E00E945F13A110F5CF332009F451CE22
:10265000B70180E290E00E945F133A94F6CFF70151
:102660008681978102C08FEF9FEF2C96E2E10C9458
:102670000B14FC010590615070400110D8F7809553
:1026800090958E0F9F1F0895FC016150704001903E
:102690000110D8F7809590958E0F9F1F0895DC014B
:1026A000FC01672F71917723E1F7329704C07C9189
:1026B0006D9370836291AE17BF07C8F308950F93AF
:1026C0001F93CF93DF93182F092FEB018B8181FD8F
:1026D00003C08FEF9FEF20C082FF10C04E815F814B
:1026E0002C813D81421753077CF4E881F9819F01D9
:1026F0002F5F3F4F39832883108306C0E885F98513
:10270000812F0995892B29F72E813F812F5F3F4F1C
:102710003F832E83812F902FDF91CF911F910F91B7
:102720000895FA01AA27283051F1203181F1E89467
:102730006F936E7F6E5F7F4F8F4F9F4FAF4FB1E0B4
:102740003ED0B4E03CD0670F781F891F9A1FA11DAF
:10275000680F791F8A1F911DA11D6A0F711D811DB0
:10276000911DA11D20D009F468943F912AE0269F75
:1027700011243019305D3193DEF6CF010895462FD4
:102780004770405D4193B3E00FD0C9F7F6CF462FB5
:102790004F70405D4A3318F0495D31FD405241931E
:1027A00002D0A9F7EACFB4E0A695979587957795DB
:1027B0006795BA95C9F700976105710508959B0162
:1027C000AC010A2E06945795479537952795BA95EB
:1027D000C9F7620F731F841F951FA01D08952F92C4
:1027E0003F924F925F926F927F928F929F92AF92A1
:1027F000BF92CF92DF92EF92FF920F931F93CF93EE
:10280000DF93CDB7DEB7CA1BDB0B0FB6F894DEBF84
:102810000FBECDBF09942A88398848885F846E84AA
:102820007D848C849B84AA84B984C884DF80EE80F4
:10283000FD800C811B81AA81B981CE0FD11D0FB6FD
:10284000F894DEBF0FBECDBFED01089511E0CAE0E0
:10285000D1E004C0FE010E94E6102296CC30D107E0
:06286000C9F7F894FFCF58
:102866000000A50280004B25303258253031642502
:1028760030316425303164252B30346425303264A0
:102886000049520056006973005851003F0000008D
:0E289600000056095C07F108200904094409F6
:00000001FF
