:100000000C9484000C94990A0C94C60A0C94AC00CD
:100010000C94AC000C94AC000C94AC000C94AC00B0
:100020000C94AC000C94AC000C94AC000C94AC00A0
:100030000C94AC000C94AC000C94AC000C94AC0090
:100040000C94F30A0C94AC000C94110E0C944D0E0D
:100050000C94AC000C94AC000C94AC000C94AC0070
:100060000C94AC000C94AC003F20557365206F6E6F
:1000700065206F662056206973205200520056207A
:10008000302E342052466475696E6F202D20636FC8
:100090006D70696C6564206174204465632031353E
:1000A00020323031332031373A32383A3233004956
:1000B0000000000007000201000003040600000029
:1000C000000000000001020408102040800102042A
:1000D000081020010204081020040404040404048D
:1000E00004020202020202030303030303000000EE
:1000F00000250028002B0000000000240027002A13
:1001000000000204080F0C0411241FBECFEFD8E03A
:10011000DEBFCDBF11E0A0E0B1E0E0E0F0E302C05F
:1001200005900D92AC33B107D9F712E0ACE3B1E022
:1001300001C01D92AC3CB107E1F711E0C6E0D1E08F
:1001400004C02297FE010E94E814C230D107C9F70B
:100150000E9452110C94F3170C94000040E855E2F1
:1001600060E070E081E292E00E94880E60E082E050
:100170000E94FA0961E08DE00E94FA0942E050E035
:100180006DE373E080E00C94690A2F923F924F92E6
:100190005F926F927F928F929F92AF92BF92CF9217
:1001A000DF92EF92FF920F931F93CF93DF93CDB720
:1001B000DEB76A970FB6F894DEBF0FBECDBF8CE3F3
:1001C00091E00E94A3058823E1F08CE391E00E9476
:1001D000BB05672B91F06FEA70E081E292E00E942C
:1001E000E40B8CE391E00E94BB05AB01BC012AE06B
:1001F00030E081E292E00E94FD0C8CE391E00E94ED
:10020000B20580917501882309F464C120915301DE
:100210002C87309152013D87409151014E8750917A
:1002200050015F8780914F01888B90914E01998B8F
:10023000F0914D01FA8B20914C012B8B30915401A0
:100240003C8B409155014D8B509156015E8B8091B6
:1002500057018F8BA0906301B0906201D090610133
:10026000E0906001F0905F0100915E0110915D01EE
:10027000B0915C01A0915B0190905A01709059017E
:10028000C090580160906B0150906A0130906901F4
:100290002090680190916701988FF0916601F98F25
:1002A000209165012A8F7091640120916F018091E6
:1002B0006E0160916D0140916C0158E0259F9001A5
:1002C0001124F4E08F9FC0011124822B842B660F30
:1002D000682B80E090E0812CFC01E15BFE4F4081C7
:1002E000FC01E25BFE4F2081FC01E35BFE4F40809E
:1002F000FC01E45BFE4FE08138E0439FA001112444
:10030000F4E02F9F90011124242B2E2B440C422A21
:10031000840C049680329105F9F6882D8F7086132F
:10032000CFC08A2D90E0982F8827990F990F990FA9
:100330002B2D30E0322F2227330F330F822B932BBC
:100340008C292D2D30E0322F2227330F822B932B37
:100350009E2940E8F49E90011124822B932B50E4B7
:10036000059F90011124822B932BF0E21F9F900197
:100370001124822B932B40E1B49F90011124822BF6
:10038000932B58E0A59FD00111248A2B9B2BF4E0DE
:100390009F9E90011124822B932B272D30E0220F5A
:1003A000331F822B932BE4E0880F991FEA95E1F726
:1003B000F4E095958795FA95E1F79C012D503E4F15
:1003C0002F3A344008F07CC050E8659E300111247B
:1003D000F0E45F9E90011124622A672A20E2329E97
:1003E000A0011124642A30E1239E10011124622807
:1003F000288DF8E02F9FA0011124642AF98D34E0A4
:10040000F39FA0011124642A2A8D220F262933E6A6
:10041000320F333608F054C02C591F922F939F93FC
:100420008F931F922F892F932D89220F3E89232B83
:10043000822F992787FD90959F932F931F924C8928
:100440004F932D85220FFE8554E0F59FC0011124A6
:10045000282B3C85232B5F8548E0549FC001112445
:10046000282B3889F0E13F9FC0011124282B59899E
:1004700040E2549FC0011124282B3A89F0E43F9FA9
:10048000C0011124282B5B8940E8549FC00111242E
:10049000282B1F922F9388E091E09F938F938E01DA
:1004A0000F5F1F4F1F930F930E942215B80181E227
:1004B00092E00E94800C0FB6F894DEBF0FBECDBF55
:1004C00010927501109271011092720110927301D5
:1004D000109274016A960FB6F894DEBF0FBECDBFBE
:1004E000DF91CF911F910F91FF90EF90DF90CF9010
:1004F000BF90AF909F908F907F906F905F904F9044
:100500003F902F900895CF92DF92EF92FF920F933A
:100510001F930E943D0B009176011091770120916D
:10052000780130917901601771078207930748F4C9
:1005300060937601709377018093780190937901AD
:1005400095C0C0907101D0907201E0907301F0905D
:10055000740145E2C416D104E104F10440F01092A4
:1005600071011092720110927301109274016B016B
:100570007C01C01AD10AE20AF30A9701860160934E
:100580007601709377018093780190937901D70178
:10059000C6018D5F9840A109B109873E4CE19407DF
:1005A000A105B10508F062C0B701A6014555544246
:1005B000610971094F38514061057105C0F44091DE
:1005C0007101509172016091730170917401443214
:1005D00051056105710519F441E0409375011092D0
:1005E0007101109272011092730110927401409186
:1005F000750141113BC08F389140A105B10568F4E8
:100600008091710190917201A0917301B091740178
:10061000FC01E45BFE4F108216C00D5C1041210905
:1006200031090F3811402105310500F58091710124
:1006300090917201A0917301B0917401FC01E45B8F
:10064000FE4F21E020838091710190917201A09171
:100650007301B09174010196A11DB11D80937101C8
:1006600090937201A0937301B09374011F910F9145
:10067000FF90EF90DF90CF9008950C948302CF937A
:10068000DF9300D0CDB7DEB72091C8023091C90208
:100690002115310511F42CEC32E0CE010196821BBC
:1006A000930B0F900F90DF91CF910895FF920F93CE
:1006B0001F93CF93DF93CDB7DEB764970FB6F8944F
:1006C000DEBF0FBECDBF8C0163E271E00E947110EE
:1006D000882319F06EE770E07FC065E271E0C80121
:1006E0000E947110882381F06CE770E081E292E053
:1006F0000E94E40B0E943F034AE050E0BC0181E20B
:1007000092E00E945C0D6CC067E271E0CE01019640
:100710000E94C90FBE016F5F7F4FC8010E94B710D2
:10072000F82ECE0101960E94580FFF2009F44BC00D
:1007300061E08DE00E94320A80E00E94890A6BE04D
:1007400070E08CE391E00E94940461E070E08CE33F
:1007500091E00E947A0468E070E08CE391E00E94EE
:10076000900442E050E0B801CE010E960E9446117E
:1007700020E030E04DE050E0BE016F5F7F4FCE01E2
:100780000E960E94D710CE010E960E94580FBE0101
:100790006F5F7F4F8CE391E00E946A058CE391E0EC
:1007A0000E949B0442E050E06DE373E080E00E9411
:1007B000690A60E08DE00E94320AB80181E292E0AD
:1007C0000E946C0C0DC06AE271E0C8010E947110B9
:1007D000882331F068E670E081E292E00E94580CD4
:1007E0006BE271E085E491E00E94071064960FB619
:1007F000F894DEBF0FBECDBFDF91CF911F910F9157
:10080000FF9008956BE271E085E491E00E94C90FCA
:100810008CE391E00C945A0485E491E00C94580F19
:100820001F93CF93DF93CDB7DEB727970FB6F8941A
:10083000DEBF0FBECDBF81E292E00E94760D892B14
:1008400079F181E292E00E94A50D182F8A3021F003
:100850008D3011F081110FC065E471E0CE01019679
:100860000E94FD0FCE0101960E945603CE01019613
:100870000E94580FE0CF65E471E0CE0101960E941E
:10088000FD0F612FCE0101960E946010BC0185E42E
:1008900091E00E94E60FCE0101960E94580FCBCF47
:1008A00027960FB6F894DEBF0FBECDBFDF91CF9174
:1008B0001F910895FC018FEF9FEF938382832EE5B4
:1008C00031E0358324832AE030E03783268321E03A
:1008D0002087918380838CE390E090930101809343
:1008E0000001109206021092070210920802109264
:1008F00009020895FC0160876130710519F48EE5E5
:1009000091E00BC06230710519F48AE892E005C0ED
:100910006330710521F484E690E095838483089523
:10092000FC01778366830895FC01862F62837383BD
:1009300061E00C94FA092FEF3FEFFC01338322832F
:100940000895FC01808191818F3FFFEF9F0791F017
:1009500010920602109207021092080210920902E9
:10096000109205021092040241E050E06DE479E03B
:100970000C94690A0895CF93DF93EC0188810E945B
:10098000890A8FEF9FEF99838883DF91CF91089534
:10099000BF92CF92DF92EF92FF920F931F93CF936C
:1009A000DF93EC016B017A01088119818A819B81B7
:1009B0000196D9F10F3F3FEF130731F0CE010E94AE
:1009C000BB04BB24B39401C0B12C61E08A810E94B6
:1009D000320A8C819D819C01C29EC001C39E900DF4
:1009E000D29E900D11240E94670B60E08A810E94C4
:1009F000320A8C819D819C01E29EC001E39E900D94
:100A0000F29E900D11240E94670BBB2071F0198398
:100A10000883CE01DF91CF911F910F91FF90EF904E
:100A2000DF90CF90BF900C94A104DF91CF911F91E4
:100A30000F91FF90EF90DF90CF90BF900895FC0151
:100A40002085213019F44FE150E009C0223019F41B
:100A50004AE050E004C0233031F447E450E061E064
:100A600070E00C94C8040895CF93DF93EC0143E049
:100A700050E061E070E00E94C80441E050E063E0B3
:100A800070E0CE01DF91CF910C94C804CF93DF9337
:100A9000EC0141E050E063E070E00E94C80441E0F6
:100AA00050E063E070E0CE01DF91CF910C94C80478
:100AB000CF93DF93EC0143E050E061E070E00E94EF
:100AC000C80443E050E061E070E0CE01DF91CF91D7
:100AD0000C94C804CF92DF92EF92FF920F931F9372
:100AE000CF93DF93EC016B01E12CF12C1CC081331F
:100AF00061F0863431F0803359F4CE010E945805FC
:100B000007C0CE010E94340503C0CE010E944605F5
:100B1000F80181918F018111EACFCE010E941F055A
:100B2000FFEFEF1AFF0A8E819F81E816F90614F491
:100B30008601EECFDF91CF911F910F91FF90EF9043
:100B4000DF90CF90089581E0409106025091070216
:100B50006091080270910902452B462B472B09F43E
:100B600080E0089510920602109207021092080287
:100B70001092090208956091060270910702809117
:100B800008029091090208952F923F924F925F922E
:100B90006F927F928F929F92AF92BF92CF92DF928D
:100BA000EF92FF920F931F93CF93DF93CDB7DEB7F2
:100BB0002C970FB6F894DEBF0FBECDBF1C018091FD
:100BC0007A0190917B016FE170E00E94B0148B017B
:100BD0004B01A12CB12CA0910001B09101019B010E
:100BE0000E94A9140E94A9132AE037ED43E25CE3B6
:100BF0000E9437140E947D136B017C019801A3E0D1
:100C0000B0E00E949A149B01AC012C193D094E09D9
:100C10005F0929833A834B835C8326013701460EA3
:100C2000571E681E791E21E030E080E090E0DC0174
:100C3000B501A4014C195D096E097F094D835E83DE
:100C40006F837887B701A601480D591D6A1D7B1D6A
:100C500049875A876B877C876CC0F901EE0FFF1FAD
:100C6000E658FE4F408151814A01A12CB12CCD8024
:100C7000DE80EF80F884C814D904EA04FB0408F588
:100C800049855A856B857C8584169506A606B70628
:100C9000C0F4F901EE0FFF1FE458FE4F408151816F
:100CA00060E070E0C980DA80EB80FC80C416D50675
:100CB000E606F70630F4441555056605770508F491
:100CC0002DC049815A816B817C81481559056A057F
:100CD0007B0548F584149504A604B70420F5F901B2
:100CE000EE0FFF1FE458FE4F408151814A01A12CB5
:100CF000B12CCD80DE80EF80F884C814D904EA04DA
:100D0000FB0488F449855A856B857C858416950695
:100D1000A606B70640F40196A11DB11D880F991FC4
:100D2000AA1FBB1F04C0910180E090E0DC012E5F90
:100D30003F4F2215330508F490CFB695A7959795A8
:100D4000879557E025163104C0F0809306029093F2
:100D50000702A0930802B0930902369427943092B8
:100D6000050220920402109303020093020221E084
:100D700030E0309301022093000221E0892B8A2B7E
:100D80008B2B09F420E0822F2C960FB6F894DEBF4F
:100D90000FBECDBFDF91CF911F910F91FF90EF90CC
:100DA000DF90CF90BF90AF909F908F907F906F908B
:100DB0005F904F903F902F9008952F923F924F92C7
:100DC0005F926F927F928F929F92AF92BF92CF92DB
:100DD000DF92EF92FF920F931F93CF93DF93CDB7E4
:100DE000DEB760970FB6F894DEBF0FBECDBF1C0113
:100DF00080917A0190917B016AE070E00E94B014CA
:100E00008B016B01E12CF12CA0910001B09101014B
:100E10009B010E94A9140E94A9132AE037ED43E226
:100E20005CE30E9437140E947D134B015C01B70103
:100E3000A601440F551F661F771F2A013B01481862
:100E400059086A087B08D501C401840F951FA61FA5
:100E5000B71F8D839E83AF83B88721E030E080E0A9
:100E600090E0DC01B701A601481959096A097B091C
:100E700049875A876B877C87B701A601480D591DA2
:100E80006A1D7B1D4D875E876F87788B71C0F90166
:100E9000EE0FFF1FE658FE4F0190F081E02DAF01ED
:100EA00060E070E089849A84AB84BC8484169506E3
:100EB000A606B70630F5AD84BE84CF84D8884A151F
:100EC0005B056C057D05E8F4F901EE0FFF1FE458A2
:100ED000FE4FE080F1804701A12CB12C89829A82DB
:100EE000AB82BC82481459046A047B0450F4CD8060
:100EF000DE80EF80F8848C149D04AE04BF0408F4F7
:100F00002CC0441655066606770660F58D809E80D7
:100F1000AF80B884481559056A057B0518F5F901B5
:100F2000EE0FFF1FE458FE4F80809180A12CB12C62
:100F3000C984DA84EB84FC84C814D904EA04FB0471
:100F400088F44D855E856F85788984169506A6069A
:100F5000B70640F40196A11DB11D880F991FAA1F65
:100F6000BB1F04C0910180E090E0DC012E5F3F4F89
:100F70002215330508F48BCFB695A79597958795DD
:100F800057E025163104C0F08093060290930702C3
:100F9000A0930802B0930902369427943092050278
:100FA00020920402109303020093020222E030E038
:100FB000309301022093000221E0892B8A2B8B2B96
:100FC00009F420E0822F60960FB6F894DEBF0FBEC2
:100FD000CDBFDF91CF911F910F91FF90EF90DF90E8
:100FE000CF90BF90AF909F908F907F906F905F90C9
:100FF0004F903F902F9008952F923F924F925F9283
:101000006F927F928F929F92AF92BF92CF92DF9218
:10101000EF92FF920F931F93CF93DF93CDB7DEB77D
:101020006C970FB6F894DEBF0FBECDBF8C018091D8
:101030007A0190917B0167E470E00E94B0141B017B
:10104000A0910001B09101019B010E94A9140E948E
:10105000A9132AE037ED43E25CE30E9437140E94B3
:101060007D134B015C01C101A0E0B0E052E0880FAC
:10107000991FAA1FBB1F5A95D1F72C013D01481893
:1010800059086A087B0849825A826B827C82750102
:101090006401C80ED91EEA1EFB1ECD82DE82EF82DD
:1010A000F8869101ABE0B0E00E949A142B013C015C
:1010B000481859086A087B0849865A866B867C86D8
:1010C00075016401C60ED71EE81EF91ECD86DE86A8
:1010D000EF86F88AA9E0B0E00E949A142B013C0147
:1010E000481859086A087B08498A5A8A6B8A7C8A98
:1010F00075016401C60ED71EE81EF91EC98EDA8E70
:10110000EB8EFC8EA6E0B0E00E949A149B01AC012D
:10111000281939094A095B092D8B3E8B4F8B588F53
:10112000860E971EA81EB91E21E030E080E090E0F8
:10113000DC0170C0F901EE0FFF1FE658FE4F408141
:10114000518160E070E049805A806B807C80441659
:1011500055066606770638F5CD80DE80EF80F88488
:101160004C155D056E057F05F0F4F901EE0FFF1FCC
:10117000E458FE4F0190F081E02D6F01E12CF12C3D
:1011800049845A846B847C844C145D046E047F040F
:1011900050F44D845E846F847888C414D504E604CA
:1011A000F70408F42CC0C988DA88EB88FC88C416D8
:1011B000D506E606F70640F5498C5A8C6B8C7C8C7C
:1011C0004415550566057705F8F4F901EE0FFF1F84
:1011D000E458FE4F4081518160E070E0CD88DE88A8
:1011E000EF88F88CC416D506E606F70668F44815AD
:1011F00059056A057B0540F40196A11DB11D880FB4
:10120000991FAA1FBB1F04C0980180E090E0DC0179
:101210002E5F3F4F2017310708F48CCFB695A79566
:101220009795879507301105C0F08093060290933B
:101230000702A0930802B093090216950795109330
:10124000050200930402309203022092020223E07E
:1012500030E0309301022093000221E0892B8A2B99
:101260008B2B09F420E0822F6C960FB6F894DEBF2A
:101270000FBECDBFDF91CF911F910F91FF90EF90E7
:10128000DF90CF90BF90AF909F908F907F906F90A6
:101290005F904F903F902F900895CF92DF92EF9202
:1012A000FF920F931F93CF93DF930E943D0B6B012F
:1012B0007C0180910A0290910B028601081B190B98
:1012C00010930F0200930E02093883E11807C0F152
:1012D00080917A0190917B019C01285C3109201753
:1012E000310750F588539F4F0817190728F580914B
:1012F00010029091110201969093110280931002B6
:10130000C0911202D09113022197D0931302C0937F
:101310001202029789F4CE010E94C405811108C00F
:10132000CE010E94DD06811103C0CE010E94FC07A0
:1013300010921102109210021092130210921202D7
:1013400080911202909113028334910540F0109223
:101350001302109212021092110210921002809148
:10136000120290911302FC01EE0FFF1FE658FE4F90
:101370001183008301969093130280931202C0920E
:101380000A02D0920B02E0920C02F0920D02DF9161
:10139000CF911F910F91FF90EF90DF90CF90089524
:1013A000833069F028F48130A1F0823011F514C047
:1013B0008630B1F08730C1F08430D9F404C0809118
:1013C00080008F7703C0809180008F7D80938000A4
:1013D000089584B58F7702C084B58F7D84BD08954C
:1013E0008091B0008F7703C08091B0008F7D809393
:1013F000B0000895CF93DF9390E0FC01EB53FF4FD3
:101400004491FC01E752FF4F8491882341F190E021
:10141000880F991FFC01E950FF4F25913491D901A4
:1014200083519F4FFC0185919491C82FD92F9FB76D
:10143000F8948C91611106C0409584238C93888127
:10144000842308C0623041F4242F209582238C939A
:101450008881842B888302C0842B8C939FBFDF916B
:10146000CF9108950F931F93CF93DF931F92CDB722
:10147000DEB7282F30E0F901EF54FF4F8491F901D6
:10148000EB53FF4F1491F901E752FF4F04910023F2
:10149000D1F0882321F069830E94D0096981E02F6F
:1014A000F0E0EE0FFF1FE351FF4F85919491DC01B7
:1014B0009FB7F8948C91611103C01095812301C0EE
:1014C000812B8C939FBF0F90DF91CF911F910F9134
:1014D00008958230E8F4E82FF0E0EE0FFF1FEC5E95
:1014E000FD4F71836083813041F0809169008C7F72
:1014F000842B80936900E89A089580916900440FD5
:10150000551F440F551F837F842B80936900E99AF0
:101510000895823068F4813011F0E89801C0E998AC
:10152000E82FF0E0EE0FFF1FEC5EFD4F11821082FE
:1015300008951F920F920FB60F9211242F933F938D
:101540004F935F936F937F938F939F93AF93BF93CB
:10155000EF93FF938091140290911502892B29F04B
:10156000E0911402F09115020995FF91EF91BF915E
:10157000AF919F918F917F916F915F914F913F912B
:101580002F910F900FBE0F901F9018951F920F92E2
:101590000FB60F9211242F933F934F935F936F9346
:1015A0007F938F939F93AF93BF93EF93FF9380911C
:1015B000160290911702892B29F0E0911602F09102
:1015C00017020995FF91EF91BF91AF919F918F9174
:1015D0007F916F915F914F913F912F910F900FBE2F
:1015E0000F901F9018951F920F920FB60F92112413
:1015F0002F933F938F939F93AF93BF938091180244
:1016000090911902A0911A02B0911B023091200210
:10161000232F2D5F2D3720F40196A11DB11D05C08C
:10162000232F2A570296A11DB11D209320028093DB
:10163000180290931902A0931A02B0931B02809192
:101640001C0290911D02A0911E02B0911F020196F2
:10165000A11DB11D80931C0290931D02A0931E0238
:10166000B0931F02BF91AF919F918F913F912F91A6
:101670000F900FBE0F901F9018950F931F939FB759
:10168000F89400911C0210911D0220911E023091CD
:101690001F0286B5A89B06C08F3F21F00F5F1F4F2A
:1016A0002F4F3F4F9FBF322F212F102F0027080FA2
:1016B000111D211D311D42E0000F111F221F331F7C
:1016C0004A95D1F7B801C9011F910F91089501976B
:1016D00039F0880F991F880F991F02970197F1F72A
:1016E0000895789484B5826084BD84B5816084BD9A
:1016F00085B5826085BD85B5816085BDEEE6F0E08B
:10170000808181608083E1E8F0E0108280818260E6
:101710008083808181608083E0E8F0E08081816067
:101720008083E1EBF0E0808184608083E0EBF0E097
:10173000808181608083EAE7F0E08081846080833B
:1017400080818260808380818160808380818068E5
:1017500080831092C1000895CF92DF92EF92FF92A2
:101760000F931F93CF93DF936C01EB017A01E60E89
:10177000F71E00E010E00BC06991D601ED91FC91DD
:101780000190F081E02DC6010995080F191FCE15B3
:10179000DF0591F7C801DF91CF911F910F91FF9065
:1017A000EF90DF90CF900895DB010D900020E9F7D6
:1017B000AD0141505109461B570BDC01ED91FC91E5
:1017C0000280F381E02D0994EF92FF920F931F9313
:1017D000CF93DF937C01EB0100E010E0FE01219646
:1017E0006491662351F0F701A081B181ED91FC91E4
:1017F000C7010995080F191FF1CFC801DF91CF91DB
:101800001F910F91FF90EF900895AF92BF92CF92EA
:10181000DF92EF92FF920F931F93CF93DF937C01A0
:101820006B0100E010E0C0E0D0E011C0D701ED9105
:10183000FC91A080B180B801C6010E94C610682F3B
:10184000C701F5010995C80FD91F0F5F1F4FD601BA
:1018500014968D919C9115970817190738F3CE01AE
:10186000DF91CF911F910F91FF90EF90DF90CF907C
:10187000BF90AF900895DC01ED91FC910190F08153
:10188000E02D09940F931F93CF93DF93EC016DE04C
:101890000E943B0C8C016AE0CE010E943B0C9C0133
:1018A000200F311FC901DF91CF911F910F91089532
:1018B0000F931F93CF93DF93EC010E94E40B8C01F5
:1018C000CE010E94420C9C01200F311FC901DF9103
:1018D000CF911F910F9108950F931F93CF93DF9393
:1018E000EC010E94050C8C01CE010E94420C9C016F
:1018F000200F311FC901DF91CF911F910F910895E2
:101900000F931F93CF93DF93EC010E94D40B8C01B4
:10191000CE010E94420C9801280F391FC901DF91A6
:10192000CF911F910F9108954F925F926F927F9286
:101930009F92AF92BF92CF92DF92EF92FF920F935E
:101940001F93CF93DF93CDB7DEB7A1970FB6F8946F
:10195000DEBF0FBECDBF5C016A017B01922E19A2D2
:1019600081E0821710F08AE0982E8E010F5D1F4FE4
:10197000492C512C612C712CC701B601A301920195
:101980000E94C4148C2D929E8019112401501109BB
:101990008A3014F4805D01C0895CF801808369019C
:1019A0007A01C114D104E104F10431F7B801C50191
:1019B0000E94D40BA1960FB6F894DEBF0FBECDBF28
:1019C000DF91CF911F910F91FF90EF90DF90CF901B
:1019D000BF90AF909F907F906F905F904F900895D1
:1019E0002115310541F4DC01ED91FC910190F0816C
:1019F000E02D642F09940C94940C0F931F93CF93B4
:101A0000DF93EC010E94F00C8C01CE010E94420C8D
:101A10009C01200F311FC901DF91CF911F910F91C0
:101A20000895CF92DF92EF92FF920F931F93CF937F
:101A3000DF93EC016A017B012115310579F4E8811E
:101A4000F9810190F081E02D642FDF91CF911F91FA
:101A50000F91FF90EF90DF90CF9009942A303105DD
:101A600019F477FD0EC02AE0B701A601CE01DF917F
:101A7000CF911F910F91FF90EF90DF90CF900C943A
:101A8000940C6DE20E943B0C8C0144275527BA014F
:101A90004C195D096E097F092AE0CE010E94940C61
:101AA000080F191FC801DF91CF911F910F91FF906F
:101AB000EF90DF90CF9008950F931F93CF93DF9314
:101AC000EC019A01AB01662757FD6095762F0E94C5
:101AD000110D8C01CE010E94420C9801280F391F74
:101AE000C901DF91CF911F910F910895FC01848569
:101AF0009585FC01E05CFF4F20813181FC01EE5BAC
:101B0000FF4F80819181281B390B2F733327C90127
:101B10000895FC0184859585FC01E05CFF4F4081C0
:101B20005181FC01EE5BFF4F208131814217530749
:101B300041F00190F081E02DE80FF91F208130E0A5
:101B400002C02FEF3FEFC9010895FC018485958500
:101B5000FC01E05CFF4F40815181FC01EE5BFF4FD7
:101B6000208131814217530781F0A081B181A80FF4
:101B7000B91F8C91208131812F5F3F4F2F73332705
:101B800031832083282F30E002C02FEF3FEFC901BF
:101B90000895FC0186859785FC01E05CFF4FDC0120
:101BA000AE5BBF4F408151812D913C9111974217FF
:101BB0005307C1F70895CF93DF93FC01868597857E
:101BC000DC01A05CBF4F2D913C9111972F5F3F4FDF
:101BD0002F733327EC01CE5BDF4F488159812417E7
:101BE0003507D9F30D90BC91A02DA80FB91F6C93A8
:101BF000A685B785A05CBF4F11963C932E93A6890E
:101C0000B7892C9181E090E0058C02C0880F991F64
:101C10000A94E2F7282B2C9381E090E0DF91CF919A
:101C200008951F920F920FB60F9211242F933F9396
:101C30004F938F939F93EF93FF934091C6008091B2
:101C4000C4029091C50201968F7399272091C60214
:101C50003091C7028217930759F0E091C402F091C6
:101C6000C502EC57FD4F40839093C5028093C40298
:101C7000FF91EF919F918F914F913F912F910F90F5
:101C80000FBE0F901F90189581E292E00E94760D92
:101C9000892B11F00C94100408951F920F920FB627
:101CA0000F9211242F933F938F939F93EF93FF9362
:101CB0002091800230918102809182029091830272
:101CC0002817390731F48091C1008F7D8093C100BE
:101CD00014C0E0918202F0918302E05CFD4F20810C
:101CE000809182029091830201968F73992790933D
:101CF0008302809382022093C600FF91EF919F910F
:101D00008F913F912F910F900FBE0F901F901895BC
:101D1000CF92DF92EF92FF92CF93DF93EC016A01B3
:101D20007B01411581EE580761057105F9F0EC89D9
:101D3000FD8981E090E00E8C02C0880F991F0A9403
:101D4000E2F7808360E079E08DE390E0A7019601FF
:101D50000E94C414215031094109510956954795F3
:101D600037952795211580E1380798F0EC89FD8992
:101D7000108260E874E88EE190E0A70196010E946D
:101D8000C414215031094109510956954795379599
:101D90002795E889F9893083EA89FB892083EE89D0
:101DA000FF89408181E090E09C010A8C02C0220FF3
:101DB000331F0A94E2F7422B4083EE89FF8940816A
:101DC0009C010B8C02C0220F331F0A94E2F7422BB6
:101DD0004083EE89FF8940819C010C8C02C0220F58
:101DE000331F0A94E2F7422B4083EE89FF8920815A
:101DF0000D8C02C0880F991F0A94E2F78095822308
:101E00008083DF91CF91FF90EF90DF90CF90089586
:101E1000109224021092230288EE93E0A0E0B0E03A
:101E20008093250290932602A0932702B093280264
:101E300080E391E0909322028093210284E892E073
:101E400090932E0280932D0280E492E090933002D2
:101E500080932F0285EC90E09093320280933102C0
:101E600084EC90E0909334028093330280EC90E015
:101E7000909336028093350281EC90E09093380283
:101E80008093370286EC90E090933A028093390277
:101E900084E080933B0283E080933C0287E0809360
:101EA0003D0285E080933E0281E080933F020895E9
:101EB000FC01808191810C94DE12CF93DF93EC01C1
:101EC00088819981009711F00E94DE121982188290
:101ED0001D821C821B821A82DF91CF9108950F937D
:101EE0001F93CF93DF93EC018B016F5F7F4F88814E
:101EF00099810E945F11009731F0998388831B8339
:101F00000A8381E001C080E0DF91CF911F910F91A2
:101F10000895CF93DF93EC0188819981892B31F06B
:101F20008A819B818617970708F00CC0CE010E941A
:101F30006F0F882349F08C819D81892B19F4E881EA
:101F4000F981108281E001C080E0DF91CF91089596
:101F5000EF92FF920F931F93CF93DF93EC017B01DE
:101F60008A01BA010E94890F811104C0CE010E942A
:101F70005D0F07C01D830C83B701888199810E9482
:101F8000FE14CE01DF91CF911F910F91FF90EF9042
:101F90000895DC0111961C921E9213961C921E92BB
:101FA000129715961C921E92149716961C92611504
:101FB000710559F0DB010D900020E9F7AD014150AA
:101FC0005109461B570B0C94A80F0895CF93DF932C
:101FD000EC01FB018617970761F060817181611543
:101FE000710529F0448155810E94A80F02C00E940A
:101FF0005D0FCE01DF91CF910895FC011182108217
:10200000138212821582148216820C94E60FCF93EB
:10201000DF93D82FC92F6115710561F0DB010D9099
:102020000020E9F7AD0141505109461B570B0E94B2
:10203000A80F02C00E945D0F8D2F9C2FDF91CF91C2
:102040000895EF92FF920F931F93CF93DF93EC01CC
:102050007B010C811D816115710511F480E016C0B2
:102060004115510591F0040F151FB8010E94890F09
:102070008823A1F3288139818C819D81B701820F4A
:10208000931F0E94FE141D830C8381E0DF91CF918A
:102090001F910F91FF90EF900895CF93DF9300D0A1
:1020A000CDB7DEB769831A8241E050E0BE016F5FB1
:1020B0007F4F0E9421100F900F90DF91CF910895D4
:1020C000CF93DF93D82FC92F0E944D10811104C0E8
:1020D0008D2F9C2F0E945D0F8D2F9C2FDF91CF9114
:1020E0000895DC0114962D913C911597232B39F41A
:1020F00081E06115710511F0FB0108C00895DC0154
:10210000ED91FC916115710529F481E0908199238D
:1021100049F007C0CF010E94F5149C0181E0232BF8
:1021200009F080E00895FA01DB0114964D915C916D
:102130001597DC0114962D913C911597241B350BB6
:102140002E173F0790F08D919C91009771F0DB0165
:102150006D917C916115710541F08E0F9F1F0E945A
:1021600005159C0181E0232B09F080E00895FC0116
:1021700044815581FB01248135814217530720F0AA
:1021800040E050E00C94931080E00895FC0124811D
:1021900035816217730748F480819181009729F097
:1021A000FC01E60FF71F8081089580E008950F93EA
:1021B0001F93CF93DF93EB0141155105E9F0209771
:1021C000D9F0FC01048115812017310708F013C0F4
:1021D00041505109021B130B4017510708F48A01A3
:1021E000FC0160817181620F731FA801CE010E9402
:1021F0001315C00FD11F1882DF91CF911F910F913E
:102200000895BF92CF92DF92EF92FF920F931F93A8
:10221000CF93DF936C017B01EA0189012417350715
:1022200020F48D2FE901042F182F6BE271E0C60115
:102230000E94C90FD70114968D919C9115978C1708
:102240009D07C8F08017910708F48C01D701ED9124
:10225000FC911197E00FF11FB08010826D917C917D
:102260006C0F7D1FC6010E940710D701ED91FC91F4
:10227000E00FF11FB082C601DF91CF911F910F9146
:10228000FF90EF90DF90CF90BF900895CF93DF93B2
:10229000EC01FB01248135810E940111CE01DF9107
:1022A000CF9108950E94710B0E94AE00C4E4DEE05D
:1022B0000E94C5002097E1F30E94440EF9CF8F924F
:1022C0009F92AF92BF92CF92DF92EF92FF920F93C5
:1022D0001F93CF93DF93EC01009779F4CB01DF914B
:1022E000CF911F910F91FF90EF90DF90CF90BF9013
:1022F000AF909F908F900C944312DC01A60FB71FF4
:10230000FC013297AE17BF0718F4C0E0D0E0ADC0B3
:102310000081118106171707B0F00530110508F488
:10232000A4C0C80104978617970708F49EC00250FE
:102330001109061B170B0D931D9371836083CD014B
:102340000E94DE1292C07B01E01AF10A5C01A00E2D
:10235000B11EE091CA02F091CB02812C912C80E059
:1023600090E04CC0EA15FB05F1F5408151816A010E
:1023700022E0C20ED11CCE14DF04A8F19A012E195E
:102380003F097901690132E0C30ED11C2EEFA22E64
:10239000BB24BA94AC0EBD1E25E0C216D10478F061
:1023A0004281538113965C934E9312971196FC923F
:1023B000EE92F501718360833A2F2B2F09C00E5FD7
:1023C0001F4F040F151FD5010D931C9332812381DC
:1023D000009721F0FC013283238347C03093CA0267
:1023E0002093CB0242C0808191818816990608F41F
:1023F0004C0152814381CF01E52FF42F309709F032
:10240000B1CF8091C8029091C9028A159B05F1F461
:1024100086169706D8F480910201909103010097E7
:1024200041F48DB79EB72091060130910701821BC0
:10243000930BA817B90708F068CFB093C902A0930F
:10244000C802FE013297718360830FC0CB010E94E6
:1024500043127C01009709F458CFA801BE010E94E5
:10246000EC14CE010E94DE12E701CE01DF91CF9184
:102470001F910F91FF90EF90DF90CF90BF90AF90A2
:102480009F908F9008950F931F93CF93DF93823087
:10249000910510F482E090E0E091CA02F091CB0245
:1024A00020E030E0C0E0D0E023C0408151814817F7
:1024B0005907A8F04817590761F482819381209742
:1024C00019F09B838A832EC09093CB028093CA021B
:1024D00029C02115310529F04217530710F0A90131
:1024E00002C0BE01DF0102811381EF019A01F801F0
:1024F0003097D9F62115310509F1281B390B243005
:10250000310590F412968D919C9113976115710588
:1025100021F0FB019383828304C09093CB028093CC
:10252000CA02FD01329644C0FD01E20FF31F819300
:102530009193225031092D933C933AC02091C802C7
:102540003091C902232B41F42091040130910501FF
:102550003093C9022093C8022091020130910301F7
:102560002115310541F42DB73EB740910601509138
:102570000701241B350BE091C802F091C902E21754
:10258000F307A0F42E1B3F0B2817390778F0AC0196
:102590004E5F5F4F2417350748F04E0F5F1F509373
:1025A000C9024093C8028193919302C0E0E0F0E039
:1025B000CF01DF91CF911F910F910895EF92FF927C
:1025C0000F931F93CF93DF93009709F48FC0DC0123
:1025D000129713961C921E921297E090CA02F090E6
:1025E000CB02E114F10489F42D913C911197280F4D
:1025F000391F8091C8029091C9028217930789F50B
:10260000B093C902A093C80271C0E70120E030E096
:1026100001C0EA01CA17DB0738F44A815B819E01D9
:1026200041155105B1F722C0BC0162507109FB018F
:10263000D383C28300811181AC01400F511F4C171D
:102640005D0761F448815981400F511F4E5F5F4F14
:10265000518340834A815B81538342832115310535
:1026600029F4B093CB02A093CA0240C0F901B3830E
:10267000A283E90169917991C60FD71FAC17BD07F5
:1026800079F4DC015E914E91460F571F4E5F5F4F0C
:102690005183408312968D919C91139793838283EB
:1026A000A0E0B0E002C0D7017C01F70182819381F4
:1026B0000097C9F7C701029620813181820F931FCD
:1026C0002091C8023091C9022817390779F4109770
:1026D00029F41092CB021092CA0204C013961C92E5
:1026E0001E921297F092C902E092C802DF91CF9138
:1026F0001F910F91FF90EF90089598D088F09F5709
:1027000090F0B92F9927B751A0F0D1F0660F771F3D
:10271000881F991F1AF0BA95C9F712C0B13081F01D
:102720009FD0B1E008959CC0672F782F8827B85FAD
:1027300039F0B93FCCF3869577956795B395D9F77E
:102740003EF490958095709561957F4F8F4F9F4F88
:102750000895E89409C097FB3EF490958095709594
:1027600061957F4F8F4F9F4F9923A9F0F92F96E9DD
:10277000BB279395F695879577956795B795F11152
:10278000F8CFFAF4BB0F11F460FF1BC06F5F7F4FEF
:102790008F4F9F4F16C0882311F096E911C0772301
:1027A00021F09EE8872F762F05C0662371F096E80A
:1027B000862F70E060E02AF09A95660F771F881FD9
:1027C000DAF7880F9695879597F9089597F99F6797
:1027D00080E870E060E008959FEF80EC08950024A9
:1027E0000A941616170618060906089500240A9476
:1027F00012161306140605060895092E0394000CFC
:1028000011F4882352F0BB0F40F4BF2B11F460FF8A
:1028100004C06F5F7F4F8F4F9F4F089557FD9058B3
:10282000440F551F59F05F3F71F04795880F97FB94
:10283000991F61F09F3F79F087950895121613064E
:102840001406551FF2CF4695F1DF08C0161617067D
:102850001806991FF1CF86957105610508940895B2
:10286000E894BB2766277727CB0197F908950BD00B
:10287000C4CFB5DF28F0BADF18F0952309F0A6CF52
:10288000ABCF1124EECFCADFA0F3959FD1F3950F04
:1028900050E0551F629FF001729FBB27F00DB11DE4
:1028A000639FAA27F00DB11DAA1F649F6627B00D74
:1028B000A11D661F829F2227B00DA11D621F739F5D
:1028C000B00DA11D621F839FA00D611D221F749F6B
:1028D0003327A00D611D231F849F600D211D822FB2
:1028E000762F6A2F11249F5750408AF0E1F08823F9
:1028F0004AF0EE0FFF1FBB1F661F771F881F915006
:102900005040A9F79E3F510570F060CFAACF5F3FBE
:10291000ECF3983EDCF3869577956795B795F79538
:10292000E7959F5FC1F7FE2B880F911D96958795C0
:1029300097F90895A29FB001B39FC001A39F700DA6
:10294000811D1124911DB29F700D811D1124911DB7
:1029500008950E949A14B7FF0895821B930B08955F
:10296000AA1BBB1B51E107C0AA1FBB1FA617B707B5
:1029700010F0A61BB70B881F991F5A95A9F78095D1
:102980009095BC01CD010895A1E21A2EAA1BBB1B94
:10299000FD010DC0AA1FBB1FEE1FFF1FA217B3072B
:1029A000E407F50720F0A21BB30BE40BF50B661F41
:1029B000771F881F991F1A9469F760957095809505
:1029C00090959B01AC01BD01CF010895EE0FFF1F53
:1029D0000590F491E02D0994FB01DC0102C0019007
:1029E0000D9241505040D8F70895FB01DC018D91C4
:1029F000019080190110D9F3990B0895FB01DC01B6
:102A000001900D920020E1F70895FB01DC01415097
:102A1000504030F08D910190801919F40020B9F7E1
:102A2000881B990B0895FB01DC014150504048F090
:102A300001900D920020C9F701C01D9241505040F5
:102A4000E0F70895AEE0B0E0E8E2F5E10C94CA17D3
:102A50000D891E8986E08C831A8309838FEF9FE797
:102A60009E838D83AE01475E5F4F6F89788DCE0167
:102A700001960E944415EF81F885E00FF11F108246
:102A80002E96E4E00C94E617ACE0B0E0EAE4F5E161
:102A90000C94BC177C016B018A01FC011782168221
:102AA000838181FFBDC1CE0101964C01F701938165
:102AB000F60193FD859193FF81916F01882309F4BD
:102AC000ABC1853239F493FD859193FF81916F01FC
:102AD000853229F4B70190E00E942C17E7CF512CE2
:102AE000312C20E02032A0F48B3269F030F48032B7
:102AF00059F0833269F420612CC08D3239F0803373
:102B000039F4216026C02260246023C0286021C0DF
:102B100027FD27C030ED380F3A3078F426FF06C085
:102B2000FAE05F9E300D1124532E13C08AE0389EC8
:102B3000300D1124332E20620CC08E3221F426FD7C
:102B40006BC1206406C08C3611F4206802C0883640
:102B500041F4F60193FD859193FF81916F018111FD
:102B6000C1CF982F9F7D9554933028F40C5F1F4F51
:102B7000FFE3F9830DC0833631F0833771F083357D
:102B800009F05BC022C0F801808189830E5F1F4F6E
:102B900044244394512C540115C03801F2E06F0EC7
:102BA000711CF801A080B18026FF03C0652D70E084
:102BB00002C06FEF7FEFC5012C870E9421172C0107
:102BC00083012C852F77222E17C03801F2E06F0E7B
:102BD000711CF801A080B18026FF03C0652D70E054
:102BE00002C06FEF7FEFC5012C870E9416172C01E2
:102BF0002C852068222E830123FC1BC0832D90E0AE
:102C000048165906B0F4B70180E290E00E942C17F4
:102C10003A94F4CFF50127FC859127FE81915F015D
:102C2000B70190E00E942C1731103A94F1E04F1A4E
:102C300051084114510471F7E5C0843611F089360A
:102C400039F5F80127FF07C0608171818281938186
:102C50000C5F1F4F08C060817181882777FD8095C8
:102C6000982F0E5F1F4F2F76B22E97FF09C09095B9
:102C70008095709561957F4F8F4F9F4F2068B22E42
:102C80002AE030E0A4010E945E17A82EA81844C0D4
:102C9000853729F42F7EB22E2AE030E025C0F22FAE
:102CA000F97FBF2E8F36C1F018F4883579F0B4C0A3
:102CB000803719F0883721F0AFC02F2F2061B22E56
:102CC000B4FE0DC08B2D8460B82E09C024FF0AC04D
:102CD0009F2F9660B92E06C028E030E005C020E1A5
:102CE00030E002C020E132E0F801B7FE07C06081A9
:102CF0007181828193810C5F1F4F06C06081718159
:102D000080E090E00E5F1F4FA4010E945E17A82E86
:102D1000A818FB2DFF77BF2EB6FE0BC02B2D2E7FE4
:102D2000A51450F4B4FE0AC0B2FC08C02B2D2E7EB0
:102D300005C07A2C2B2D03C07A2C01C0752C24FFE2
:102D40000DC0FE01EA0DF11D8081803311F4297E52
:102D500009C022FF06C07394739404C0822F867842
:102D600009F0739423FD13C020FF06C05A2C73147E
:102D700018F4530C5718732C731468F4B70180E2DD
:102D800090E02C870E942C1773942C85F5CF731438
:102D900010F4371801C0312C24FF12C0B70180E3B2
:102DA00090E02C870E942C172C8522FF17C021FF52
:102DB00003C088E590E002C088E790E0B7010CC04E
:102DC000822F867859F021FD02C080E201C08BE29B
:102DD00027FD8DE2B70190E00E942C17A51438F46E
:102DE000B70180E390E00E942C175A94F7CFAA9481
:102DF000F401EA0DF11D8081B70190E00E942C17CB
:102E0000A110F5CF332009F451CEB70180E290E054
:102E10000E942C173A94F6CFF7018681978102C061
:102E20008FEF9FEF2C96E2E10C94D817FC010590F0
:102E3000615070400110D8F7809590958E0F9F1FBC
:102E40000895FC016150704001900110D8F7809501
:102E500090958E0F9F1F08950F931F93CF93DF932D
:102E6000182F092FEB018B8181FD03C08FEF9FEF9E
:102E700020C082FF10C04E815F812C813D814217AE
:102E800053077CF4E881F9819F012F5F3F4F39831D
:102E90002883108306C0E885F985812F0995892B41
:102EA00029F72E813F812F5F3F4F3F832E83812F54
:102EB000902FDF91CF911F910F910895FA01AA27CA
:102EC000283051F1203181F1E8946F936E7F6E5F6D
:102ED0007F4F8F4F9F4FAF4FB1E03ED0B4E03CD01B
:102EE000670F781F891F9A1FA11D680F791F8A1FFE
:102EF000911DA11D6A0F711D811D911DA11D20D065
:102F000009F468943F912AE0269F11243019305D1E
:102F10003193DEF6CF010895462F4770405D41930F
:102F2000B3E00FD0C9F7F6CF462F4F70405D4A335C
:102F300018F0495D31FD4052419302D0A9F7EACF24
:102F4000B4E0A6959795879577956795BA95C9F753
:102F500000976105710508959B01AC010A2E069446
:102F60005795479537952795BA95C9F7620F731FFF
:102F7000841F951FA01D08952F923F924F925F923C
:102F80006F927F928F929F92AF92BF92CF92DF9279
:102F9000EF92FF920F931F93CF93DF93CDB7DEB7DE
:102FA000CA1BDB0B0FB6F894DEBF0FBECDBF099472
:102FB0002A88398848885F846E847D848C849B84C9
:102FC000AA84B984C884DF80EE80FD800C811B81D7
:102FD000AA81B981CE0FD11D0FB6F894DEBF0FBE06
:102FE000CDBFED01089511E0C6E0D1E004C0FE01BF
:102FF0000E94E8142296C830D107C9F7F894FFCF91
:103000003C000000CC0280004B2530325825303186
:10301000642530316425303164252B30346425300B
:10302000326400560052006973003F000000000047
:0C303000DB0DAC0B760DA50D890DC90D54
:00000001FF
