:100000000C9485000C94C70A0C94F40A0C94AD006F
:100010000C94AD000C94AD000C94AD000C94AD00AC
:100020000C94AD000C94AD000C94AD000C94AD009C
:100030000C94AD000C94AD000C94AD000C94AD008C
:100040000C94210B0C94AD000C94000E0C943C0EFF
:100050000C94AD000C94AD000C94AD000C94AD006C
:100060000C94AD000C94AD0049005620302E332086
:1000700052466475696E6F202D20636F6D70696CD8
:100080006564206174204E6F762020362032303136
:10009000332032323A35343A3435003F20557365D7
:1000A000206F6E65206F662056000000000700027A
:1000B000010000030406000000000000000001022F
:1000C00004081020408001020408102001020408E6
:1000D00010200404040404040404020202020202C4
:1000E000030303030303000000002300260029008C
:1000F00000000000250028002B0000000000240064
:1001000027002A005104F70E5B0411241FBECFEF15
:10011000D8E0DEBFCDBF11E0A0E0B1E0E8EDFFE246
:1001200002C005900D92AE33B107D9F712E0AEE3ED
:10013000B1E001C01D92AA3BB107E1F711E0C8E0B0
:10014000D1E004C02297FE010E94D414C430D1072C
:10015000C9F70E9441110C94DF170C94000040E88D
:1001600055E260E070E08FE092E00E94770E60E080
:1001700082E00E94FF0961E08DE00E94FF0941E0FA
:1001800050E06DE474E080E00C94970AAF92BF9267
:10019000CF92DF92EF92FF920F931F93CF93DF9353
:1001A000CDB7DEB72C970FB6F894DEBF0FBECDBF2C
:1001B00088E591E00E94A8058823E1F088E591E0B8
:1001C0000E94C005672B91F068E670E08FE092E036
:1001D0000E94380C88E591E00E94C005AB01BC018B
:1001E0002AE030E08FE092E00E94510D88E591E036
:1001F0000E94B70580913E0182FF8FC080E00E947F
:10020000B70A00913F0110914001209141013091C6
:1002100042018091430190914401A0914501B09128
:10022000460140913E014D7F40933E01AC01BD012E
:10023000EAE17695679557954795EA95D1F743702A
:10024000552766277727E02FE295E07F8C019D01F7
:10025000FCE13695279517950795FA95D1F7E02B90
:10026000FB2FF370FF5F8C019D016CE036952795A5
:10027000179507956A95D1F7A02E8C019D0174E121
:1002800036952795179507957A95D1F70F70112711
:1002900022273327A7FF03C06FE0B62E01C0B12C81
:1002A0002FE0C22ED12CE12CF12CC822D922EA2237
:1002B000FB22807F9927AA27BB278C291F928F9327
:1002C000902F88278A293B2D3295307F20E0822B82
:1002D000932B9F938F935F934F931F92FF931F9244
:1002E000EF9388E091E09F938F938E010F5F1F4FF4
:1002F0001F930F930E940E15B8018FE092E00E94A9
:10030000D40C41E050E06DE474E080E00E94970A74
:100310000FB6F894DEBF0FBECDBF64E670E080E09C
:1003200090E00E94950B2C960FB6F894DEBF0FBE9E
:10033000CDBFDF91CF911F910F91FF90EF90DF9094
:10034000CF90BF90AF900895FF920F931F93CF93DC
:10035000DF93CDB7DEB764970FB6F894DEBF0FBE5C
:10036000CDBF8C016FE171E00E94601081117BC0F4
:1003700061E271E0C8010E946010811174C05FC029
:1003800061E08DE00E94370A80E00E94B70A6BE0CE
:1003900070E088E591E00E94990461E070E088E5F2
:1003A00091E00E947F0468E070E088E591E00E949F
:1003B000950442E050E0B801CE010E960E9435113E
:1003C00020E030E04DE050E0BE016F5F7F4FCE0196
:1003D0000E960E94C610CE010E960E94470FBE01D7
:1003E0006F5F7F4F88E591E00E946F0588E591E09F
:1003F0000E94A00441E050E06DE474E080E00E94BF
:10040000970A60E08DE00E94370AB8018FE092E021
:100410000E94C00C0DC069E271E0C8010E9460102A
:10042000882331F06BE970E08FE092E00E94AC0C21
:100430006AE271E081E691E00E94F60F17C06BE27C
:1004400071E0CE0101960E94B80FBE016F5F7F4F31
:10045000C8010E94A610F82ECE0101960E94470FF7
:10046000FF20C9F28DCF6AE670E0DECF64960FB64A
:10047000F894DEBF0FBECDBFDF91CF911F910F91DA
:10048000FF9008951F93CF93DF93CDB7DEB72E97DC
:100490000FB6F894DEBF0FBECDBF8FE092E00E9492
:1004A000650D892B79F18FE092E00E94940D182F51
:1004B0008A3021F08D3011F081110FC061E671E0BA
:1004C000CE0108960E94EC0FCE0108960E94A4016E
:1004D000CE0108960E94470FE0CF61E671E0CE01A1
:1004E00001960E94EC0F612FCE0101960E944F10E1
:1004F000BC0181E691E00E94D50FCE0101960E94D9
:10050000470FCBCF2E960FB6F894DEBF0FBECDBFF0
:10051000DF91CF911F910895CF92DF92EF92FF92DA
:100520000F931F930E946B0B6B017C018091500114
:1005300090915101A0915201B0915301C816D90672
:10054000EA06FB0698F5C0925001D0925101E09264
:100550005201F0925301C0925401D0925501E092A1
:100560005601F092570110924701109248011092E3
:10057000490110924A0110924B0110924C011092C5
:100580004D0110924E0110923F01109240011092C5
:1005900041011092420110924301109244011092C5
:1005A00045011092460110923E0170C182E00E9406
:1005B0006E0A892B09F051C180915001909151012F
:1005C000A0915201B0915301845D9E4FAF4FBF4F38
:1005D0008C159D05AE05BF0508F058C180915401EA
:1005E00090915501A0915601B0915701A701960134
:1005F000281B390B4A0B5B0BDA01C90140914B01F7
:1006000050914C0160914D0170914E0120913E013D
:1006100077FF02C0286001C0277F20933E01209110
:100620003E0127FFEDC08C019D01035315402109B8
:1006300031090F3811402105310568F4440F551F69
:10064000661F771F40934B0150934C0160934D01FF
:1006500070934E011AC08C019D010D5F1840210955
:1006600031090F38114021053105B0F5DB01CA0110
:10067000880F991FAA1FBB1F816080934B01909325
:100680004C01A0934D01B0934E0180914701909190
:100690004801A0914901B0914A01880F991FAA1FF2
:1006A000BB1F8093470190934801A0934901B093E9
:1006B0004A0120913E0123FF09C0816080934701D8
:1006C00090934801A0934901B0934A0180914F0152
:1006D0008F5F80934F012AC010924F011092470103
:1006E000109248011092490110924A0110924B0158
:1006F00010924C0110924D0110924E0120913E013A
:100700002B7F20933E0120913E012F7720933E01C5
:100710008D5C9041A109B1098F389140A105B105C7
:1007200028F480913E01806880933E0180914F01C2
:10073000843208F489C080913E018B7F80933E0112
:1007400040914701509148016091490170914A01DF
:1007500000913F01109140012091410130914201EF
:1007600080914B0190914C01A0914D01B0914E01AF
:10077000401751076207730791F4009143011091EC
:100780004401209145013091460180179107A2074D
:10079000B30729F420913E01246020933E01409349
:1007A0003F01509340016093410170934201809357
:1007B000430190934401A0934501B0934601809179
:1007C0003E01826080933E0180913E018F7780934D
:1007D0003E0161E08DE00E94370A109247011092BD
:1007E00048011092490110924A0110924B01109257
:1007F0004C0110924D0110924E0110924F0124C0F5
:100800008D5C9041A109B1098F389140A105B105D6
:10081000D8F41092470110924801109249011092A9
:100820004A0110924B0110924C0110924D0110920E
:100830004E0110924F0180913E01806880933E01ED
:1008400060E08DE00E94370AC0925401D0925501B9
:10085000E0925601F092570119C080915401909195
:100860005501A0915601B0915701845D9E4FAF4F45
:10087000BF4F8C159D05AE05BF0540F4C0925001D9
:10088000D0925101E0925201F09253011F910F91C9
:10089000FF90EF90DF90CF9008950E9452090C9442
:1008A0008C026AE271E081E691E00E94B80F88E56F
:1008B00091E00C945F0481E691E00C94470FFC01F9
:1008C0008FEF9FEF938382832EE531E0358324837E
:1008D0002AE030E03783268321E0208791838083DC
:1008E0008CE390E090930101809300011092F40159
:1008F0001092F5011092F6011092F7010895FC0193
:1009000060876130710519F48EE591E00BC06230AB
:10091000710519F48AE892E005C06330710521F48D
:1009200084E690E0958384830895FC017783668351
:100930000895FC01862F6283738361E00C94FF09A4
:100940002FEF3FEFFC01338322830895FC01808168
:1009500091818F3FFFEF9F0791F01092F401109269
:10096000F5011092F6011092F7011092F301109226
:10097000F20141E050E062E579E00C94970A0895B5
:10098000CF93DF93EC0188810E94B70A8FEF9FEF2E
:1009900099838883DF91CF910895BF92CF92DF92A0
:1009A000EF92FF920F931F93CF93DF93EC016B01B4
:1009B0007A01088119818A819B810196D9F10F3FC3
:1009C0003FEF130731F0CE010E94C004BB24B39463
:1009D00001C0B12C61E08A810E94370A8C819D811F
:1009E0009C01C29EC001C39E900DD29E900D112409
:1009F0000E94BB0B60E08A810E94370A8C819D8136
:100A00009C01E29EC001E39E900DF29E900D112488
:100A10000E94BB0BBB2071F019830883CE01DF91CC
:100A2000CF911F910F91FF90EF90DF90CF90BF90EB
:100A30000C94A604DF91CF911F910F91FF90EF903E
:100A4000DF90CF90BF900895FC012085213019F4EC
:100A50004FE150E009C0223019F44AE050E004C0F0
:100A6000233031F447E450E061E070E00C94CD04B1
:100A70000895CF93DF93EC0143E050E061E070E034
:100A80000E94CD0441E050E063E070E0CE01DF91D0
:100A9000CF910C94CD04CF93DF93EC0141E050E073
:100AA00063E070E00E94CD0441E050E063E070E05C
:100AB000CE01DF91CF910C94CD04CF93DF93EC0165
:100AC00043E050E061E070E00E94CD0443E050E07C
:100AD00061E070E0CE01DF91CF910C94CD04CF9214
:100AE000DF92EF92FF920F931F93CF93DF93EC016E
:100AF0006B01E12CF12C1CC0813361F0863431F0A4
:100B0000803359F4CE010E945D0507C0CE010E94DA
:100B1000390503C0CE010E944B05F80181918F0178
:100B20008111EACFCE010E942405FFEFEF1AFF0AE0
:100B30008E819F81E816F90614F48601EECFDF91CD
:100B4000CF911F910F91FF90EF90DF90CF9008957C
:100B500081E04091F4015091F5016091F6017091AE
:100B6000F701452B462B472B09F480E0089510929E
:100B7000F4011092F5011092F6011092F701089518
:100B80006091F4017091F5018091F6019091F70167
:100B900008952F923F924F925F926F927F928F9221
:100BA0009F92AF92BF92CF92DF92EF92FF920F93FC
:100BB0001F93CF93DF93CDB7DEB72C970FB6F89482
:100BC000DEBF0FBECDBF1C0180916801909169010D
:100BD0006FE170E00E949C148B014B01A12CB12CA1
:100BE000A0910001B09101019B010E9495140E9407
:100BF00098132AE037ED43E25CE30E9426140E943A
:100C00006C136B017C019801A3E0B0E00E94891491
:100C10009B01AC012C193D094E095F0929833A83D8
:100C20004B835C8326013701460E571E681E791ED2
:100C300021E030E080E090E0DC01B501A4014C1936
:100C40005D096E097F094D835E836F837887B701E5
:100C5000A601480D591D6A1D7B1D49875A876B8760
:100C60007C876CC0F901EE0FFF1FE859FE4F4081F1
:100C700051814A01A12CB12CCD80DE80EF80F88417
:100C8000C814D904EA04FB0408F549855A856B8524
:100C90007C8584169506A606B706C0F4F901EE0F0A
:100CA000FF1FE659FE4F4081518160E070E0C9802E
:100CB000DA80EB80FC80C416D506E606F70630F431
:100CC000441555056605770508F42DC049815A81FC
:100CD0006B817C81481559056A057B0548F58414AC
:100CE0009504A604B70420F5F901EE0FFF1FE6599D
:100CF000FE4F408151814A01A12CB12CCD80DE8074
:100D0000EF80F884C814D904EA04FB0488F4498508
:100D10005A856B857C8584169506A606B70640F431
:100D20000196A11DB11D880F991FAA1FBB1F04C0EA
:100D3000910180E090E0DC012E5F3F4F22153305EA
:100D400008F490CFB695A7959795879557E0251607
:100D50003104C0F08093F4019093F501A093F60163
:100D6000B093F701369427943092F3012092F20168
:100D70001093F1010093F00121E030E03093EF0196
:100D80002093EE0121E0892B8A2B8B2B09F420E0A4
:100D9000822F2C960FB6F894DEBF0FBECDBFDF9129
:100DA000CF911F910F91FF90EF90DF90CF90BF9068
:100DB000AF909F908F907F906F905F904F903F90FB
:100DC0002F9008952F923F924F925F926F927F9251
:100DD0008F929F92AF92BF92CF92DF92EF92FF924B
:100DE0000F931F93CF93DF93CDB7DEB760970FB606
:100DF000F894DEBF0FBECDBF1C01809168019091B9
:100E000069016AE070E00E949C148B016B01E12C87
:100E1000F12CA0910001B09101019B010E94951459
:100E20000E9498132AE037ED43E25CE30E94261407
:100E30000E946C134B015C01B701A601440F551FC2
:100E4000661F771F2A013B01481859086A087B086A
:100E5000D501C401840F951FA61FB71F8D839E83E4
:100E6000AF83B88721E030E080E090E0DC01B7019B
:100E7000A601481959096A097B0949875A876B876E
:100E80007C87B701A601480D591D6A1D7B1D4D8742
:100E90005E876F87788B71C0F901EE0FFF1FE859ED
:100EA000FE4F0190F081E02DAF0160E070E0898499
:100EB0009A84AB84BC8484169506A606B70630F5E2
:100EC000AD84BE84CF84D8884A155B056C057D054A
:100ED000E8F4F901EE0FFF1FE659FE4FE080F180C4
:100EE0004701A12CB12C89829A82AB82BC82481422
:100EF00059046A047B0450F4CD80DE80EF80F884CE
:100F00008C149D04AE04BF0408F42CC0441655068E
:100F10006606770660F58D809E80AF80B8844815A0
:100F200059056A057B0518F5F901EE0FFF1FE65913
:100F3000FE4F80809180A12CB12CC984DA84EB848F
:100F4000FC84C814D904EA04FB0488F44D855E854A
:100F50006F85788984169506A606B70640F4019633
:100F6000A11DB11D880F991FAA1FBB1F04C09101AD
:100F700080E090E0DC012E5F3F4F2215330508F43E
:100F80008BCFB695A7959795879557E02516310491
:100F9000C0F08093F4019093F501A093F601B09313
:100FA000F701369427943092F3012092F2011093C6
:100FB000F1010093F00122E030E03093EF01209343
:100FC000EE0121E0892B8A2B8B2B09F420E0822F64
:100FD00060960FB6F894DEBF0FBECDBFDF91CF9104
:100FE0001F910F91FF90EF90DF90CF90BF90AF9047
:100FF0009F908F907F906F905F904F903F902F9039
:1010000008952F923F924F925F926F927F928F92AC
:101010009F92AF92BF92CF92DF92EF92FF920F9387
:101020001F93CF93DF93CDB7DEB76C970FB6F894CD
:10103000DEBF0FBECDBF8C01809168019091690128
:1010400067E470E00E949C141B01A0910001B09124
:1010500001019B010E9495140E9498132AE037ED2C
:1010600043E25CE30E9426140E946C134B015C0176
:10107000C101A0E0B0E052E0880F991FAA1FBB1F7A
:101080005A95D1F72C013D01481859086A087B0888
:1010900049825A826B827C8275016401C80ED91E16
:1010A000EA1EFB1ECD82DE82EF82F8869101ABE064
:1010B000B0E00E9489142B013C01481859086A08C5
:1010C0007B0849865A866B867C8675016401C60E4C
:1010D000D71EE81EF91ECD86DE86EF86F88AA9E0C7
:1010E000B0E00E9489142B013C01481859086A0895
:1010F0007B08498A5A8A6B8A7C8A75016401C60E0C
:10110000D71EE81EF91EC98EDA8EEB8EFC8EA6E085
:10111000B0E00E9489149B01AC01281939094A09E1
:101120005B092D8B3E8B4F8B588F860E971EA81E0A
:10113000B91E21E030E080E090E0DC0170C0F901F0
:10114000EE0FFF1FE859FE4F4081518160E070E0D3
:1011500049805A806B807C80441655066606770667
:1011600038F5CD80DE80EF80F8844C155D056E0586
:101170007F05F0F4F901EE0FFF1FE659FE4F0190D5
:10118000F081E02D6F01E12CF12C49845A846B84AD
:101190007C844C145D046E047F0450F44D845E84A2
:1011A0006F847888C414D504E604F70408F42CC0CE
:1011B000C988DA88EB88FC88C416D506E606F706E7
:1011C00040F5498C5A8C6B8C7C8C44155505660512
:1011D0007705F8F4F901EE0FFF1FE659FE4F408145
:1011E000518160E070E0CD88DE88EF88F88CC4160D
:1011F000D506E606F70668F4481559056A057B0525
:1012000040F40196A11DB11D880F991FAA1FBB1F95
:1012100004C0980180E090E0DC012E5F3F4F201772
:10122000310708F48CCFB695A79597958795073029
:101230001105C0F08093F4019093F501A093F6019D
:10124000B093F701169507951093F3010093F201FF
:101250003092F1012092F00123E030E03093EF0171
:101260002093EE0121E0892B8A2B8B2B09F420E0BF
:10127000822F6C960FB6F894DEBF0FBECDBFDF9104
:10128000CF911F910F91FF90EF90DF90CF90BF9083
:10129000AF909F908F907F906F905F904F903F9016
:1012A0002F900895CF92DF92EF92FF920F931F93AA
:1012B000CF93DF930E946B0B6B017C018091F8014F
:1012C0009091F9018601081B190B1093FD01009301
:1012D000FC01093883E11807C0F180916801909101
:1012E00069019C01285C31092017310750F58853AA
:1012F0009F4F0817190728F58091FE019091FF0173
:1013000001969093FF018093FE01C0910002D0915D
:1013100001022197D0930102C0930002029789F441
:10132000CE010E94C905811108C0CE010E94E206CB
:10133000811103C0CE010E9401081092FF0110929A
:10134000FE01109201021092000280910002909121
:1013500001028334910540F01092010210920002C4
:101360001092FF011092FE01809100029091010203
:10137000FC01EE0FFF1FE859FE4F11830083019619
:101380009093010280930002C092F801D092F9017B
:10139000E092FA01F092FB01DF91CF911F910F9142
:1013A000FF90EF90DF90CF900895833069F028F49C
:1013B0008130A1F0823011F514C08630B1F0873051
:1013C000C1F08430D9F404C0809180008F7703C0CD
:1013D000809180008F7D80938000089584B58F7701
:1013E00002C084B58F7D84BD08958091B0008F7751
:1013F00003C08091B0008F7D8093B0000895CF939B
:10140000DF9390E0FC01E254FF4F4491FC01EE5267
:10141000FF4F8491882341F190E0880F991FFC01D0
:10142000E650FF4F25913491D90180519F4FFC0127
:1014300085919491C82FD92F9FB7F8948C91611101
:1014400006C0409584238C938881842308C0623031
:1014500041F4242F209582238C938881842B8883C8
:1014600002C0842B8C939FBFDF91CF9108950F937F
:101470001F93CF93DF931F92CDB7DEB7282F30E0B5
:10148000F901E655FF4F8491F901E254FF4F1491A1
:10149000F901EE52FF4F04910023D1F0882321F08F
:1014A00069830E94D5096981E02FF0E0EE0FFF1FEC
:1014B000E051FF4F85919491DC019FB7F8948C9196
:1014C000611103C01095812301C0812B8C939FBFB4
:1014D0000F90DF91CF911F910F910895CF93DF93DC
:1014E000282F30E0F901E655FF4F8491F901E254CD
:1014F000FF4FD491F901EE52FF4FC491CC2389F0F4
:1015000081110E94D509EC2FF0E0EE0FFF1FEA5188
:10151000FF4F85919491DC018C918D2321E030E087
:1015200011F420E030E0C901DF91CF9108958230BD
:10153000E8F4E82FF0E0EE0FFF1FEE5FFD4F718340
:101540006083813041F0809169008C7F842B80938F
:101550006900E89A089580916900440F551F440F6F
:10156000551F837F842B80936900E99A0895823008
:1015700068F4813011F0E89801C0E998E82FF0E0B4
:10158000EE0FFF1FEE5FFD4F1182108208951F9234
:101590000F920FB60F9211242F933F934F935F93A7
:1015A0006F937F938F939F93AF93BF93EF93FF932B
:1015B0008091020290910302892B29F0E0910202AE
:1015C000F09103020995FF91EF91BF91AF919F9127
:1015D0008F917F916F915F914F913F912F910F90DC
:1015E0000FBE0F901F9018951F920F920FB60F927B
:1015F00011242F933F934F935F936F937F938F9318
:101600009F93AF93BF93EF93FF93809104029091C8
:101610000502892B29F0E0910402F0910502099559
:10162000FF91EF91BF91AF919F918F917F916F91BA
:101630005F914F913F912F910F900FBE0F901F9090
:1016400018951F920F920FB60F9211242F933F936C
:101650008F939F93AF93BF9380910602909107025F
:10166000A0910802B091090230910E02232F2D5F44
:101670002D3720F40196A11DB11D05C0232F2A5737
:101680000296A11DB11D20930E0280930602909335
:101690000702A0930802B093090280910A02909178
:1016A0000B02A0910C02B0910D020196A11DB11D7B
:1016B00080930A0290930B02A0930C02B0930D0248
:1016C000BF91AF919F918F913F912F910F900FBE3E
:1016D0000F901F9018950F931F939FB7F894009148
:1016E0000A0210910B0220910C0230910D0286B576
:1016F000A89B06C08F3F21F00F5F1F4F2F4F3F4F1A
:101700009FBF322F212F102F0027080F111D211DE1
:10171000311D42E0000F111F221F331F4A95D1F7E0
:10172000B801C9011F910F910895CF92DF92EF92F6
:10173000FF92CF93DF936B017C010E946B0BEB0157
:101740000EC00E946B0B6C1B7D0B683E734038F023
:1017500081E0C81AD108E108F108C851DC4FC11472
:10176000D104E104F10469F7DF91CF91FF90EF908C
:10177000DF90CF900895019739F0880F991F880F57
:10178000991F02970197F1F70895789484B58260C4
:1017900084BD84B5816084BD85B5826085BD85B515
:1017A000816085BDEEE6F0E0808181608083E1E8C4
:1017B000F0E01082808182608083808181608083FC
:1017C000E0E8F0E0808181608083E1EBF0E08081FF
:1017D00084608083E0EBF0E0808181608083EAE7D1
:1017E000F0E080818460808380818260808380815A
:1017F000816080838081806880831092C100089519
:10180000CF92DF92EF92FF920F931F93CF93DF93CC
:101810006C01EB017A01E60EF71E00E010E00BC050
:101820006991D601ED91FC910190F081E02DC60106
:101830000995080F191FCE15DF0591F7C801DF9133
:10184000CF911F910F91FF90EF90DF90CF9008956F
:10185000DB010D900020E9F7AD0141505109461B15
:10186000570BDC01ED91FC910280F381E02D09948E
:10187000EF92FF920F931F93CF93DF937C01EB01C5
:1018800000E010E0FE0121966491662351F0F7011B
:10189000A081B181ED91FC91C7010995080F191F35
:1018A000F1CFC801DF91CF911F910F91FF90EF9081
:1018B0000895AF92BF92CF92DF92EF92FF920F9373
:1018C0001F93CF93DF937C016B0100E010E0C0E039
:1018D000D0E011C0D701ED91FC91A080B180B8019A
:1018E000C6010E94B510682FC701F5010995C80F00
:1018F000D91F0F5F1F4FD60114968D919C9115979C
:101900000817190738F3CE01DF91CF911F910F917E
:10191000FF90EF90DF90CF90BF90AF900895DC01E3
:10192000ED91FC910190F081E02D09940F931F93AC
:10193000CF93DF93EC016DE00E948F0C8C016AE085
:10194000CE010E948F0C9C01200F311FC901DF9135
:10195000CF911F910F9108950F931F93CF93DF9312
:10196000EC010E94380C8C01CE010E94960C9C0167
:10197000200F311FC901DF91CF911F910F91089561
:101980000F931F93CF93DF93EC010E94590C8C01AE
:10199000CE010E94960C9C01200F311FC901DF91DE
:1019A000CF911F910F9108950F931F93CF93DF93C2
:1019B000EC010E94280C8C01CE010E94960C98012B
:1019C000280F391FC901DF91CF911F910F91089501
:1019D0004F925F926F927F929F92AF92BF92CF92FF
:1019E000DF92EF92FF920F931F93CF93DF93CDB7C8
:1019F000DEB7A1970FB6F894DEBF0FBECDBF5C0176
:101A00006A017B01922E19A281E0821710F08AE010
:101A1000982E8E010F5D1F4F492C512C612C712C7B
:101A2000C701B601A30192010E94B0148C2D929EB1
:101A300080191124015011098A3014F4805D01C00D
:101A4000895CF801808369017A01C114D104E10441
:101A5000F10431F7B801C5010E94280CA1960FB618
:101A6000F894DEBF0FBECDBFDF91CF911F910F91D4
:101A7000FF90EF90DF90CF90BF90AF909F907F90BE
:101A80006F905F904F9008952115310541F4DC016E
:101A9000ED91FC910190F081E02D642F09940C945C
:101AA000E80C0F931F93CF93DF93EC010E94440D3A
:101AB0008C01CE010E94960C9C01200F311FC901A0
:101AC000DF91CF911F910F910895FC018485958539
:101AD000FC01E05CFF4F20813181FC01EE5BFF4F98
:101AE00080819181281B390B2F733327C9010895F9
:101AF000FC0184859585FC01E05CFF4F40815181AC
:101B0000FC01EE5BFF4F208131814217530741F00A
:101B10000190F081E02DE80FF91F208130E002C034
:101B20002FEF3FEFC9010895FC0184859585FC01E5
:101B3000E05CFF4F40815181FC01EE5BFF4F208153
:101B400031814217530781F0A081B181A80FB91FDD
:101B50008C91208131812F5F3F4F2F733327318349
:101B60002083282F30E002C02FEF3FEFC9010895F6
:101B7000FC0186859785FC01E05CFF4FDC01AE5BD4
:101B8000BF4F408151812D913C91119742175307CE
:101B9000C1F70895CF93DF93FC0186859785DC011B
:101BA000A05CBF4F2D913C9111972F5F3F4F2F733A
:101BB0003327EC01CE5BDF4F48815981241735076D
:101BC000D9F30D90BC91A02DA80FB91F6C93A685D9
:101BD000B785A05CBF4F11963C932E93A689B78919
:101BE0002C9181E090E0058C02C0880F991F0A9427
:101BF000E2F7282B2C9381E090E0DF91CF910895BC
:101C00001F920F920FB60F9211242F933F934F9371
:101C10008F939F93EF93FF934091C6008091B20200
:101C20009091B30201968F7399272091B40230915D
:101C3000B5028217930759F0E091B202F091B30216
:101C4000EE58FD4F40839093B3028093B202FF9110
:101C5000EF919F918F914F913F912F910F900FBED8
:101C60000F901F9018958FE092E00E94650D892BD0
:101C700011F00C94420208951F920F920FB60F922A
:101C800011242F933F938F939F93EF93FF93209172
:101C90006E0230916F02809170029091710228174C
:101CA000390731F48091C1008F7D8093C10014C049
:101CB000E0917002F0917102E25DFD4F2081809110
:101CC00070029091710201968F739927909371021F
:101CD000809370022093C600FF91EF919F918F91A6
:101CE0003F912F910F900FBE0F901F901895CF929C
:101CF000DF92EF92FF92CF93DF93EC016A017B01B9
:101D0000411581EE580761057105F9F0EC89FD89EF
:101D100081E090E00E8C02C0880F991F0A94E2F7D0
:101D2000808360E079E08DE390E0A70196010E9456
:101D3000B0142150310941095109569547953795FD
:101D40002795211580E1380798F0EC89FD891082EC
:101D500060E874E88EE190E0A70196010E94B0145B
:101D600021503109410951095695479537952795D5
:101D7000E889F9893083EA89FB892083EE89FF8924
:101D8000408181E090E09C010A8C02C0220F331F49
:101D90000A94E2F7422B4083EE89FF8940819C013F
:101DA0000B8C02C0220F331F0A94E2F7422B4083B0
:101DB000EE89FF8940819C010C8C02C0220F331FE9
:101DC0000A94E2F7422B4083EE89FF8920810D8C33
:101DD00002C0880F991F0A94E2F7809582238083BE
:101DE000DF91CF91FF90EF90DF90CF900895109208
:101DF00012021092110288EE93E0A0E0B0E080930E
:101E0000130290931402A0931502B093160282E37A
:101E100091E09093100280930F0282E792E09093FA
:101E20001C0280931B028EE292E090931E0280932C
:101E30001D0285EC90E09093200280931F0284ECB9
:101E400090E0909322028093210280EC90E09093A6
:101E500024028093230281EC90E0909326028093E9
:101E6000250286EC90E0909328028093270284E07C
:101E70008093290283E080932A0287E080932B02DB
:101E800085E080932C0281E080932D020895FC016F
:101E9000808191810C94CD12CF93DF93EC018881E6
:101EA0009981009711F00E94CD12198218821D822B
:101EB0001C821B821A82DF91CF9108950F931F938A
:101EC000CF93DF93EC018B016F5F7F4F8881998106
:101ED0000E944E11009731F0998388831B830A83F7
:101EE00081E001C080E0DF91CF911F910F910895B3
:101EF000CF93DF93EC0188819981892B31F08A811E
:101F00009B818617970708F00CC0CE010E945E0FD8
:101F1000882349F08C819D81892B19F4E881F9810E
:101F2000108281E001C080E0DF91CF910895EF92AF
:101F3000FF920F931F93CF93DF93EC017B018A01F4
:101F4000BA010E94780F811104C0CE010E944C0F8B
:101F500007C01D830C83B701888199810E94EA1410
:101F6000CE01DF91CF911F910F91FF90EF900895D7
:101F7000DC0111961C921E9213961C921E921297CF
:101F800015961C921E92149716961C926115710557
:101F900059F0DB010D900020E9F7AD0141505109E6
:101FA000461B570B0C94970F0895CF93DF93EC01CA
:101FB000FB018617970761F06081718161157105DA
:101FC00029F0448155810E94970F02C00E944C0F56
:101FD000CE01DF91CF910895FC011182108213820E
:101FE00012821582148216820C94D50FCF93DF9340
:101FF000D82FC92F6115710561F0DB010D9000200C
:10200000E9F7AD0141505109461B570B0E94970F4C
:1020100002C00E944C0F8D2F9C2FDF91CF9108950D
:10202000EF92FF920F931F93CF93DF93EC017B010D
:102030000C811D816115710511F480E016C04115F8
:10204000510591F0040F151FB8010E94780F8823E5
:10205000A1F3288139818C819D81B701820F931F63
:102060000E94EA141D830C8381E0DF91CF911F91C0
:102070000F91FF90EF900895CF93DF9300D0CDB7ED
:10208000DEB769831A8241E050E0BE016F5F7F4F87
:102090000E9410100F900F90DF91CF910895CF9371
:1020A000DF93D82FC92F0E943C10811104C08D2FBF
:1020B0009C2F0E944C0F8D2F9C2FDF91CF91089564
:1020C000DC0114962D913C911597232B39F481E076
:1020D0006115710511F0FB0108C00895DC01ED9157
:1020E000FC916115710529F481E09081992349F0F3
:1020F00007C0CF010E94E1149C0181E0232B09F06D
:1021000080E00895FA01DB0114964D915C911597DA
:10211000DC0114962D913C911597241B350B2E173D
:102120003F0790F08D919C91009771F0DB016D91CC
:102130007C916115710541F08E0F9F1F0E94F11473
:102140009C0181E0232B09F080E00895FC0144818B
:102150005581FB01248135814217530720F040E06F
:1021600050E00C94821080E00895FC0124813581B8
:102170006217730748F480819181009729F0FC0170
:10218000E60FF71F8081089580E008950F931F9355
:10219000CF93DF93EB0141155105E9F02097D9F07A
:1021A000FC01048115812017310708F013C041504C
:1021B0005109021B130B4017510708F48A01FC0157
:1021C00060817181620F731FA801CE010E94FF140C
:1021D000C00FD11F1882DF91CF911F910F910895E9
:1021E000BF92CF92DF92EF92FF920F931F93CF9304
:1021F000DF936C017B01EA0189012417350720F484
:102200008D2FE901042F182F6AE271E0C6010E94A8
:10221000B80FD70114968D919C9115978C179D0737
:10222000C8F08017910708F48C01D701ED91FC915B
:102230001197E00FF11FB08010826D917C916C0FAF
:102240007D1FC6010E94F60FD701ED91FC91E00FB2
:10225000F11FB082C601DF91CF911F910F91FF90C6
:10226000EF90DF90CF90BF900895CF93DF93EC0174
:10227000FB01248135810E94F010CE01DF91CF91C6
:1022800008950E94C50B0E94AF00C3E3DEE00E94E8
:10229000C6002097E1F30E94330EF9CF8F929F92F0
:1022A000AF92BF92CF92DF92EF92FF920F931F9364
:1022B000CF93DF93EC01009779F4CB01DF91CF91BD
:1022C0001F910F91FF90EF90DF90CF90BF90AF9054
:1022D0009F908F900C943212DC01A60FB71FFC0167
:1022E0003297AE17BF0718F4C0E0D0E0ADC0008150
:1022F000118106171707B0F00530110508F4A4C0C6
:10230000C80104978617970708F49EC00250110968
:10231000061B170B0D931D9371836083CD010E94E3
:10232000CD1292C07B01E01AF10A5C01A00EB11E31
:10233000E091B802F091B902812C912C80E090E0FC
:102340004CC0EA15FB05F1F5408151816A0122E09C
:10235000C20ED11CCE14DF04A8F19A012E193F0938
:102360007901690132E0C30ED11C2EEFA22EBB24ED
:10237000BA94AC0EBD1E25E0C216D10478F042819D
:10238000538113965C934E9312971196FC92EE92A2
:10239000F501718360833A2F2B2F09C00E5F1F4F09
:1023A000040F151FD5010D931C93328123810097D3
:1023B00021F0FC013283238347C03093B80220937D
:1023C000B90242C0808191818816990608F44C01B7
:1023D00052814381CF01E52FF42F309709F0B1CF1F
:1023E0008091B6029091B7028A159B05F1F486168A
:1023F0009706D8F48091020190910301009741F46F
:102400008DB79EB72091060130910701821B930B77
:10241000A817B90708F068CFB093B702A093B60227
:10242000FE013297718360830FC0CB010E9432128C
:102430007C01009709F458CFA801BE010E94D8146E
:10244000CE010E94CD12E701CE01DF91CF911F9105
:102450000F91FF90EF90DF90CF90BF90AF909F9043
:102460008F9008950F931F93CF93DF938230910540
:1024700010F482E090E0E091B802F091B90220E01F
:1024800030E0C0E0D0E023C04081518148175907B7
:10249000A8F04817590761F482819381209719F0B9
:1024A0009B838A832EC09093B9028093B80229C07F
:1024B0002115310529F04217530710F0A90102C078
:1024C000BE01DF0102811381EF019A01F80130970B
:1024D000D9F62115310509F1281B390B24303105B6
:1024E00090F412968D919C9113976115710521F0CE
:1024F000FB019383828304C09093B9028093B80256
:10250000FD01329644C0FD01E20FF31F81939193C8
:10251000225031092D933C933AC02091B60230915C
:10252000B702232B41F4209104013091050130932F
:10253000B7022093B60220910201309103012115C8
:10254000310541F42DB73EB7409106015091070186
:10255000241B350BE091B602F091B702E217F307A6
:10256000A0F42E1B3F0B2817390778F0AC014E5F03
:102570005F4F2417350748F04E0F5F1F5093B70287
:102580004093B6028193919302C0E0E0F0E0CF0166
:10259000DF91CF911F910F910895EF92FF920F93CA
:1025A0001F93CF93DF93009709F48FC0DC0112973C
:1025B00013961C921E921297E090B802F090B90206
:1025C000E114F10489F42D913C911197280F391FE2
:1025D0008091B6029091B7028217930789F5B09364
:1025E000B702A093B60271C0E70120E030E001C05D
:1025F000EA01CA17DB0738F44A815B819E01411565
:102600005105B1F722C0BC0162507109FB01D383AF
:10261000C28300811181AC01400F511F4C175D072F
:1026200061F448815981400F511F4E5F5F4F5183C4
:1026300040834A815B81538342832115310529F40C
:10264000B093B902A093B80240C0F901B383A2834A
:10265000E90169917991C60FD71FAC17BD0779F4CD
:10266000DC015E914E91460F571F4E5F5F4F5183C5
:10267000408312968D919C91139793838283A0E05F
:10268000B0E002C0D7017C01F701828193810097FD
:10269000C9F7C701029620813181820F931F2091D3
:1026A000B6023091B7022817390779F4109729F448
:1026B0001092B9021092B80204C013961C921E9296
:1026C0001297F092B702E092B602DF91CF911F917C
:1026D0000F91FF90EF90089598D088F09F5790F059
:1026E000B92F9927B751A0F0D1F0660F771F881F37
:1026F000991F1AF0BA95C9F712C0B13081F09FD076
:10270000B1E008959CC0672F782F8827B85F39F013
:10271000B93FCCF3869577956795B395D9F73EF495
:1027200090958095709561957F4F8F4F9F4F08953D
:10273000E89409C097FB3EF490958095709561955B
:102740007F4F8F4F9F4F9923A9F0F92F96E9BB2711
:102750009395F695879577956795B795F111F8CF8D
:10276000FAF4BB0F11F460FF1BC06F5F7F4F8F4FF8
:102770009F4F16C0882311F096E911C0772321F0EE
:102780009EE8872F762F05C0662371F096E8862F86
:1027900070E060E02AF09A95660F771F881FDAF7DD
:1027A000880F9695879597F9089597F99F6780E820
:1027B00070E060E008959FEF80EC089500240A9493
:1027C0001616170618060906089500240A9412160C
:1027D0001306140605060895092E0394000C11F43F
:1027E000882352F0BB0F40F4BF2B11F460FF04C0EC
:1027F0006F5F7F4F8F4F9F4F089557FD9058440F45
:10280000551F59F05F3F71F04795880F97FB991F4F
:1028100061F09F3F79F0879508951216130614060C
:10282000551FF2CF4695F1DF08C016161706180699
:10283000991FF1CF86957105610508940895E89474
:10284000BB2766277727CB0197F908950BD0C4CF14
:10285000B5DF28F0BADF18F0952309F0A6CFABCF8B
:102860001124EECFCADFA0F3959FD1F3950F50E06E
:10287000551F629FF001729FBB27F00DB11D639F32
:10288000AA27F00DB11DAA1F649F6627B00DA11DD8
:10289000661F829F2227B00DA11D621F739FB00D7E
:1028A000A11D621F839FA00D611D221F749F3327EE
:1028B000A00D611D231F849F600D211D822F762F87
:1028C0006A2F11249F5750408AF0E1F088234AF084
:1028D000EE0FFF1FBB1F661F771F881F91505040D0
:1028E000A9F79E3F510570F060CFAACF5F3FECF390
:1028F000983EDCF3869577956795B795F795E795BC
:102900009F5FC1F7FE2B880F911D9695879597F9CC
:102910000895A29FB001B39FC001A39F01D0B29FB1
:10292000700D811D1124911D08950E948914B7FF17
:102930000895821B930B0895AA1BBB1B51E107C08E
:10294000AA1FBB1FA617B70710F0A61BB70B881F3F
:10295000991F5A95A9F780959095BC01CD010895CE
:10296000A1E21A2EAA1BBB1BFD010DC0AA1FBB1F93
:10297000EE1FFF1FA217B307E407F50720F0A21B05
:10298000B30BE40BF50B661F771F881F991F1A9472
:1029900069F760957095809590959B01AC01BD019C
:1029A000CF010895EE0FFF1F0590F491E02D0994DB
:1029B000FB01DC0102C001900D9241505040D8F75C
:1029C0000895FB01DC018D91019080190110D9F36C
:1029D000990B0895FB01DC0101900D920020E1F7B5
:1029E0000895FB01DC014150504030F08D91019081
:1029F000801919F40020B9F7881B990B0895FB0181
:102A0000DC014150504048F001900D920020C9F780
:102A100001C01D9241505040E0F70895AEE0B0E093
:102A2000E4E1F5E10C94B6170D891E8986E08C83EC
:102A30001A8309838FEF9FE79E838D83AE01475EE4
:102A40005F4F6F89788DCE0101960E943015EF811E
:102A5000F885E00FF11F10822E96E4E00C94D21757
:102A6000ACE0B0E0E6E3F5E10C94A8177C016B0163
:102A70008A01FC0117821682838181FFBDC1CE01CC
:102A800001964C01F7019381F60193FD859193FF27
:102A900081916F01882309F4ABC1853239F493FD2C
:102AA000859193FF81916F01853229F4B70190E000
:102AB0000E941817E7CF512C312C20E02032A0F4CF
:102AC0008B3269F030F4803259F0833269F420613E
:102AD0002CC08D3239F0803339F4216026C0226059
:102AE000246023C0286021C027FD27C030ED380FA7
:102AF0003A3078F426FF06C0FAE05F9E300D1124CC
:102B0000532E13C08AE0389E300D1124332E2062DC
:102B10000CC08E3221F426FD6BC1206406C08C36B9
:102B200011F4206802C0883641F4F60193FD8591C6
:102B300093FF81916F018111C1CF982F9F7D955493
:102B4000933028F40C5F1F4FFFE3F9830DC08336E9
:102B500031F0833771F0833509F05BC022C0F80192
:102B6000808189830E5F1F4F44244394512C54016C
:102B700015C03801F2E06F0E711CF801A080B18021
:102B800026FF03C0652D70E002C06FEF7FEFC50127
:102B90002C870E940D172C0183012C852F77222E64
:102BA00017C03801F2E06F0E711CF801A080B180EF
:102BB00026FF03C0652D70E002C06FEF7FEFC501F7
:102BC0002C870E9402172C012C852068222E83015D
:102BD00023FC1BC0832D90E048165906B0F4B701C2
:102BE00080E290E00E9418173A94F4CFF50127FC98
:102BF000859127FE81915F01B70190E00E9418172F
:102C000031103A94F1E04F1A51084114510471F710
:102C1000E5C0843611F0893639F5F80127FF07C081
:102C200060817181828193810C5F1F4F08C0608138
:102C30007181882777FD8095982F0E5F1F4F2F7623
:102C4000B22E97FF09C090958095709561957F4F42
:102C50008F4F9F4F2068B22E2AE030E0A4010E94DF
:102C60004A17A82EA81844C0853729F42F7EB22E03
:102C70002AE030E025C0F22FF97FBF2E8F36C1F059
:102C800018F4883579F0B4C0803719F0883721F00E
:102C9000AFC02F2F2061B22EB4FE0DC08B2D8460EB
:102CA000B82E09C024FF0AC09F2F9660B92E06C017
:102CB00028E030E005C020E130E002C020E132E051
:102CC000F801B7FE07C060817181828193810C5F3A
:102CD0001F4F06C06081718180E090E00E5F1F4F42
:102CE000A4010E944A17A82EA818FB2DFF77BF2E1B
:102CF000B6FE0BC02B2D2E7FA51450F4B4FE0AC0D7
:102D0000B2FC08C02B2D2E7E05C07A2C2B2D03C0C3
:102D10007A2C01C0752C24FF0DC0FE01EA0DF11DB7
:102D20008081803311F4297E09C022FF06C073948C
:102D3000739404C0822F867809F0739423FD13C026
:102D400020FF06C05A2C731418F4530C5718732C18
:102D5000731468F4B70180E290E02C870E94181782
:102D600073942C85F5CF731410F4371801C0312CEF
:102D700024FF12C0B70180E390E02C870E9418174F
:102D80002C8522FF17C021FF03C088E590E002C018
:102D900088E790E0B7010CC0822F867859F021FDBA
:102DA00002C080E201C08BE227FD8DE2B70190E016
:102DB0000E941817A51438F4B70180E390E00E9430
:102DC00018175A94F7CFAA94F401EA0DF11D8081E7
:102DD000B70190E00E941817A110F5CF332009F435
:102DE00051CEB70180E290E00E9418173A94F6CFD6
:102DF000F7018681978102C08FEF9FEF2C96E2E169
:102E00000C94C417FC010590615070400110D8F774
:102E1000809590958E0F9F1F0895FC016150704022
:102E200001900110D8F7809590958E0F9F1F0895FF
:102E30000F931F93CF93DF93182F092FEB018B81F3
:102E400081FD03C08FEF9FEF20C082FF10C04E8135
:102E50005F812C813D81421753077CF4E881F98121
:102E60009F012F5F3F4F39832883108306C0E88579
:102E7000F985812F0995892B29F72E813F812F5FB5
:102E80003F4F3F832E83812F902FDF91CF911F9152
:102E90000F910895FA01AA27283051F1203181F1CC
:102EA000E8946F936E7F6E5F7F4F8F4F9F4FAF4F52
:102EB000B1E03ED0B4E03CD0670F781F891F9A1F65
:102EC000A11D680F791F8A1F911DA11D6A0F711D19
:102ED000811D911DA11D20D009F468943F912AE025
:102EE000269F11243019305D3193DEF6CF0108950D
:102EF000462F4770405D4193B3E00FD0C9F7F6CF3E
:102F0000462F4F70405D4A3318F0495D31FD405205
:102F1000419302D0A9F7EACFB4E0A695979587959B
:102F200077956795BA95C9F700976105710508957A
:102F30009B01AC010A2E0694579547953795279526
:102F4000BA95C9F7620F731F841F951FA01D0895BE
:102F50002F923F924F925F926F927F928F929F92A9
:102F6000AF92BF92CF92DF92EF92FF920F931F9397
:102F7000CF93DF93CDB7DEB7CA1BDB0B0FB6F89448
:102F8000DEBF0FBECDBF09942A88398848885F8488
:102F90006E847D848C849B84AA84B984C884DF80F9
:102FA000EE80FD800C811B81AA81B981CE0FD11DDD
:102FB0000FB6F894DEBF0FBECDBFED01089511E04E
:102FC000C8E0D1E004C0FE010E94D4142296CA30A9
:082FD000D107C9F7F894FFCF07
:102FD8003C000000BA0280004525303258253031C7
:102FE8006425303164252B30346425303364005631
:102FF8000076657273696F6E003F006973000000A8
:0E3008000000CA0D000C650D940D780DB80D7A
:00000001FF
